:020000040800F2
:10000000E84A00209D010008F1190008A91600081F
:10001000CD180008650F00081F5000080000000000
:100020000000000000000000000000001D43000868
:10003000191300080000000059060008CD2C000824
:10004000D7010008D7010008D7010008D701000830
:10005000D7010008D7010008D7010008D701000820
:10006000D7010008D7010008D7010008D701000810
:10007000D7010008D7010008D7010008D701000800
:10008000D7010008D7010008D7010008D7010008F0
:10009000D7010008D7010008D7010008D7010008E0
:1000A000D7010008D7010008D7010008D7010008D0
:1000B000D7010008D7010008D7010008D7010008C0
:1000C000D7010008D7010008D7010008D7010008B0
:1000D000D7010008414B0008D7010008D7010008EC
:1000E000D7010008D7010008D7010008D701000890
:1000F000D7010008D7010008D7010008D701000880
:10010000D7010008D7010008D7010008D70100086F
:10011000D7010008D7010008D7010008D70100085F
:10012000D7010008D7010008D7010008D70100084F
:10013000D7010008D7010008D7010008D70100083F
:10014000D7010008D7010008D7010008D70100082F
:10015000D7010008D701000811100008D7010008D6
:10016000D7010008D7010008D7010008D70100080F
:10017000D7010008D7010008D7010008D7010008FF
:10018000D7010008D7010008DFF80CD000F0FAF919
:1001900000480047ED540008E84A0020DFF8380026
:1001A000016841F470010160BFF34F8FDFF82C004C
:1001B000016821F040410160BFF36F8F084880471C
:1001C00008480047FEE7FEE7FEE7FEE7FEE7FEE73A
:1001D000FEE7FEE7FEE7FEE788ED00E034EF00E033
:1001E000D94A00088901000872B6704762B67047A4
:1001F000EFF3108072B6704780F31088704730BFFD
:10020000704720BF7047B0FA80F0704790FAA0F0B6
:10021000B0FA80F0704790FAA0F070472DE9F05FD7
:100220000546002092469B46884606468146402465
:100230001BE0284641464746224600F036F9534621
:100240005A46C01A914110D311461846224600F072
:100250001DF92D1A67EB01084F46224601200021A7
:1002600000F014F917EB00094E41201EA4F101041F
:10027000DFDC484631462A464346BDE8F09F2DE97B
:10028000FE4F81EA030404F0004421F00041009491
:100290004FF0000B23F0004350EA01045ED052EA15
:1002A00003045BD0C3F30A54C1F30A552C44A4F2EF
:1002B000F3340194A0FB0254C1F3130141F4801103
:1002C000C3F3130343F4801301FB024400FB034E0A
:1002D000840A970A44EA815447EA8357A4FB0768D3
:1002E00002958D0A05FB07854FEA932C04FB0C54FD
:1002F0002705029D4FEA065847EA1637B5EB080571
:100300006EEB070C870E920E47EA811742EA8312C2
:10031000A7FB0201B6EB0B0164EB00042B0D43EAD3
:100320000C335E1844EB1C50DA465146E7FB0201E1
:10033000C5F313044FEA0B3343EA14534FEA043274
:10034000019C43EA0603A4F10C040294009CCDE94D
:1003500000B400F0C9F803B0BDE8F08F00200146FA
:10036000F9E72DE9F04D81EA030404F0004B21F098
:10037000004514464FF0000A23F0004150EA050200
:1003800020D054EA01021DD0C5F30A570246C5F336
:100390001303C1F31300C1F30A5640F4801543F46C
:1003A0008013A7EB0608101BD64608F2FD3873EB46
:1003B000050002D308F1010801E092185B41B8F191
:1003C000000F03DA00200146BDE8F08D00204FF455
:1003D0008011064684460EE0171B73EB050705D314
:1003E000121B63EB050306434CEA010C49084FEA74
:1003F000300092185B4150EA0107EDD152EA030048
:1004000012D082EA040083EA0501084305D0101BDC
:10041000AB4106D20122002306E000224FF0004348
:1004200002E06FF0010253101AEB06004CEB08518A
:1004300010EB0A0041EB0B01BDE8F04D00F045B8B0
:100440000EB540F2334102910021CDE900110A4678
:100450000B4600F049F803B000BDC1F30A5210B5D5
:10046000C1F3130140F2FF3341F480119A4201DAE3
:10047000002010BD40F233439A42A2F2334203DC23
:10048000524200F012F810BD904010BD202A04DB4B
:10049000203A00FA02F1002070479140C2F1200397
:1004A00020FA03F3194390407047202A04DB203AD6
:1004B00021FA02F00021704721FA02F3D040C2F184
:1004C0002002914008431946704710B5141E73F17D
:1004D000000408DA401C41F1000192185B411A4304
:1004E00001D120F0010010BD2DE9F04D92469B4650
:1004F00011B1B1FA81F202E0B0FA80F220329046F6
:10050000FFF7C4FF04460F4640EA0A0041EA0B0128
:1005100053465A46084313D0114653EA010019D0F6
:10052000C8F140025046FFF7C0FF05460E46504650
:1005300059464246FFF7AAFF084305D0012004E0D0
:1005400020463946BDE8F08D0020054346EAE076B6
:100550002C4337430A986305E40AA0EB0800002205
:10056000FD0A44EA47540A3002D500200146E9E773
:10057000010510196941DDE9084500196941BDE827
:10058000F04DA2E7064C074D06E0E06840F001039D
:1005900094E8070098471034AC42F6D3FFF7F8FD13
:1005A0005059000870590008EFF3098141B1F1EE8C
:1005B000101A40F8041D20ED200A3B490A6810601B
:1005C0007047B0EC200A02C8E1EE101A37490A68F9
:1005D0001060704772B64EF62250CEF2000040F224
:1005E000FF01C0F20001017040F21810C2F20000D9
:1005F000016881F3088840F2A600C2F2000040F2D0
:10060000A701C2F200010A78027040F21015C2F28E
:10061000000540F21411C2F200010A682A60106855
:1006200080F30988EFF3148040F0020080F314880F
:10063000BFF36F8FBDE8F00F0FBCBDE8005006BCE4
:1006400062B608471A484FF0805101607047184859
:100650004FF080510160704772B6EFF3098020E9D6
:10066000F00F40F21015C2F200052E68306074469B
:1006700002F052FA40F2A600C2F2000040F2A701D6
:10068000C2F200010A78027040F21411C2F20001B5
:100690000A682A6044F0F40E1068B0E8F00F80F3A6
:1006A000098862B670470000100100201401002084
:1006B00004ED00E000B58DB00121084603F08AFD8D
:1006C0000121080203F096FD20200B9003208DF8F5
:1006D000300000208DF833000BA9164800F01DFEF5
:1006E0000121080203F096FD00214FF4807003F011
:1006F00091FD002007900A9009904FF480300890F7
:1007000007A800F027F84FF08070019000208DF8C6
:1007100008008DF809000390059001208DF818005D
:1007200001A9054800F03CF80121034800F006F853
:100730000DB000BD000002400020014021B18268E0
:1007400042F00102826003E0826822F001028260CE
:10075000704700000021084A1168084A1140D0E99A
:1007600000231A4383681A43C3681A431143044A97
:10077000C2F804137047000004230140E030FCFF7E
:10078000002001400146C86C80B27047024600203C
:1007900013680B400BB1012000E0002070470000FF
:1007A00030B50246002000235068104C20400D79DF
:1007B0000C6844EA05242043506090680C4C2040AB
:1007C000D1E903542C438D682C434D7944EA450408
:1007D00020439060D06A20F470000C7D641EE4B267
:1007E000234340EA0350D06230BD0000FFFEFFFC0F
:1007F000FDF7FFC0F0B504460D4600200021092D8D
:1008000011DDE068A5F10A0606EB4607072606FAA1
:1008100007F18843A5F10A0606EB460603FA06F13E
:100820000843E0600CE0206905EB4507072606FA5F
:1008300007F1884305EB450603FA06F108432061FA
:10084000072A0FDA606B561E06EB86071F2606FA8C
:1008500007F18843561E06EB860605FA06F10843A3
:10086000606322E00D2A0FDA206BD61F06EB8607A5
:100870001F2606FA07F18843D61F06EB860605FAFF
:1008800006F10843206310E0E06AA2F10D0606EBD2
:1008900086071F2606FA07F18843A2F10D0606EB2C
:1008A000860605FA06F10843E062F0BD816841F072
:1008B000804181607047000008B511E00948007868
:1008C000401C0849087008460078082801DD03200C
:1008D000087000F035FE6A460021022002F078F927
:1008E000ECE700005800002008B51DE00F48007834
:1008F00070B100200D49087080200D4908806A46BB
:100900000021322002F064F980200949891C088006
:100910000848406980F00800064948616A4600219D
:100920004FF4FA7002F054F9E0E7000013000020E1
:1009300018180240001002401CB50121402003F0AD
:1009400049FC8020009001208DF8040000208DF8E3
:10095000060001208DF8070000208DF8050069468B
:10096000034800F0DAFC802001491A3108801CBDE0
:10097000001802401FB5684603F05CFC019804B003
:1009800010BD10B500F070FF04F0AAF904F004FAED
:1009900001F02FF8FFF78EFEFFF7CEFF10BD00002D
:1009A00010B504462146FAA004F03CFB42F21000C8
:1009B000211A844275D075DC40F20B61A4EB010072
:1009C0008C4270D04EDC40F20351A4EB01008C420B
:1009D0006AD02ADC40F20131A4EB01008C4270D0D5
:1009E00012DC40F20311A4EB01008C426AD006DC59
:1009F000A4F2011000286ED001286DD13BE1FE2841
:100A00006BD0FF28F9D170E1B0F5807F7ED004DC97
:100A100001287CD00228F0D16AE1B0F5007F77D0C0
:100A2000A0F201200028E8D165E1B0F5817F70D007
:100A30000FDCFF286ED004DC01286CD0FE28DCD14E
:100A40005CE1B0F5807F67D0A0F201100028D4D11E
:100A5000EDE1A0F2031005283ED2DFE800F0F3F24A
:100A6000F1F0EF0041F6FA12811A904279D035DCAC
:100A700040F6F702A0EB0201904273D015DCB0F50E
:100A8000FB7F70D004DCF6286ED0F728B5D1D7E113
:100A9000A0F2F710002868D0A0F2FF600028ACD1C7
:100AA000F7E108E224E0C9E126E1B1F5885F6FD003
:100AB00009DC01296DD0A1F58051FF3900299CD1B5
:100AC000EAE113E1FAE06FF48850084400287CD092
:100AD000012892D1E3E1B7E0EEE005E10B29BBD2BA
:100AE000DFE801F0EAE9E8E7E6E5E4E3E2E1E00077
:100AF00040F2F232881A914268D050DCFA296ED066
:100B00001FDCF4296CD014DCF12906E0F1E0EEE002
:100B1000F0E08DE112E1F0E027E175D004DC01297D
:100B200073D002298BD1C8E1F2296FD0F32986D185
:100B3000C6E1F53905298FD2DFE801F0F9F8F7F6BB
:100B4000F500B1F5FA7F76D015DC40F2F112A1EB99
:100B50000200914270D009DCFB296ED0FC2995D1AE
:100B6000B7E19DE196E16CE169E17EE101286AD09F
:100B700002288BD1B0E140F2F222881A914276D05D
:100B800008DCA1F2F511002972D0FC2987D1A6E179
:100B900083E180E101286CD0FF2890D1A2E1B0F57B
:100BA000817F67D01DDC062878D006DC062896D227
:100BB000DFE800F082ECEBEAE9E8FF286FD006DC22
:100BC00007286DD0082884D195E167E18BE1B0F565
:100BD000807F66D0A0F201100028A3D18EE176E1DB
:100BE0006FE1B0F5A06F68D017DC40F2FF32A0EBE8
:100BF0000201904275D00ADCA0F2FF10002871D0EB
:100C0000B0F5807F8ED18FE158E155E157E10129A0
:100C100069D0B1F5807F85D189E1A0F2FF6000281D
:100C20007ED0B0F5145F7CD0B0F5185F7AD0B0F507
:100C30001C5F94D180E150E14CE149E1FDE0FBE033
:100C4000F9E0F7E0F5E046E103F088FB8B22544938
:100C50005448006804F00AFD534802780078401CAC
:100C6000514B1870214651A004F0DCF966E137E1E0
:100C700034E136E143E103F0BBFD07225049494826
:100C8000006804F0F3FC484802780078401C464BAA
:100C90001870214645A004F0C5F94FE129E12BE188
:100CA00028E12AE106E104E102E100E1FEE0FCE0E6
:100CB000FAE0F8E0F6E0F4E03FE139E103F06AFE43
:100CC000022240493748006804F0D0FC36480278D8
:100CD0000078401C344B1870214634A004F0A2F96F
:100CE0002CE122E10CE121E128E127E126E125E1E7
:100CF00024E123E122E121E120E11FE10120324949
:100D00000870002211462748006804F0AFFC26480E
:100D100002780078401C244B1870214623A007E07D
:100D200007E107E107E1D1E0CFE0CDE0CBE0C9E0AA
:100D300004F078F925A004F075F9FFE000202249BD
:100D40000870002211461748006804F08FFC16480E
:100D500002780078401C144B1870214613A004F050
:100D600061F91EA004F05EF9E8E01748007870B160
:100D70001EA004F057F911A004F054F91EA004F0CD
:100D800051F942E0B4E0B2E0B0E0AEE0ACE039E00E
:100D9000B9A6C4DCC2EBCEAA3078253034780A007C
:100DA000FE0A0020180000201C00002030782530AA
:100DB0003458B7A2CBCDCDEAB3C925750A000000DF
:100DC0002C000020380000201D000020BFAAC6F41F
:100DD000D0C5CFA2BDBBBBA50A000000B9D8B1D514
:100DE000D0C5CFA2BDBBBBA50A000000B4F2D3A101
:100DF000D0C5CFA2CEAA0A00B4F2D3A1CDEAB3C91E
:100E00000A0000004EA004F00DF9002211465048DF
:100E1000006804F02BFC4F4802780078401C4D4BD2
:100E200018702146AFF27C0004F0FCF886E085E003
:100E300084E083E082E081E080E07FE07EE07DE0AE
:100E40007CE003F07BFA022243494148006804F049
:100E50000DFC404802780078401C3E4B187021463B
:100E6000AFF2B80004F0DEF868E003F059FA0222AD
:100E70003A493748006804F0F9FB364802780078B0
:100E8000401C344B18702146AFF2E00004F0CAF861
:100E900054E053E052E051E050E04FE04EE04DE0CE
:100EA0004CE04BE04AE049E048E047E046E045E0FE
:100EB00044E043E042E041E040E03FE03EE03DE02E
:100EC0003CE03BE03AE039E038E037E036E035E05E
:100ED00034E033E032E031E030E02FE02EE02DE08E
:100EE0002CE02BE02AE029E028E027E026E025E0BE
:100EF00024E023E022E021E020E01FE01EE01DE0EE
:100F000003F052FD092216491148006804F0AEFBB7
:100F1000104802780078401C0E4B18702146AFF242
:100F2000741004F07FF809E008E007E006E005E04F
:100F300004E003E002E001E000E000BF00BF10BDFC
:100F4000CEB4BFAAC6F4D0C5CFA2BDBBBBA50A0014
:100F5000180000201C000020400000204800002055
:100F6000890B002000BFFEE710B500F021F800F06B
:100F700019F810BD10B5002400BF00BFFFF738F905
:100F8000044600BF00BF1021054800F0A1FC00BFCF
:100F900000BF2046FFF730F900BF00BF10BD0000C2
:100FA000541D002010B5FFF7E5FF10BD00BFFEE7A0
:100FB00010B500200249086000F00AF810BD0000DA
:100FC0005C00002001490860704700005C000020C0
:100FD00010B5FFF7CFFC04460848006840F0807069
:100FE000064908600020064948600846006840F04D
:100FF000010008602046FFF7E5FF10BDFCED00E0B2
:10100000001000E00149486870470000001000E04F
:1010100010B5002400BF00BFFFF7EAF8044600BF88
:1010200000BF12480078401C1049087000BF00BF84
:101030002046FFF7E1F800BF00BF4FF020510C48F9
:1010400000F0FEF870B14FF02051094800F01CF894
:101050000021074800F032F806A003F0E3FF01206A
:101060000849087000F0F8FD10BD00008C00002059
:10107000B8640240444D41B7A2CBCDBDE1CAF80AE5
:101080000A000000130000200246094B9A4201D2D8
:10109000084801E00648103801F000531BB1064B28
:1010A0000B40C36002E0044B0B40836070470000BC
:1010B00010640240006002407D0F7D0F21B1026884
:1010C00042F00102026003E0026822F001020260C5
:1010D00070470000016821F00101016000210160FA
:1010E00041608160C1600161212141614A498842BA
:1010F00004D13D21484A103A91608CE046491831AC
:10110000884205D14FF47461434A103A916082E0FD
:1011100041493031884205D14FF474113E4A103AAA
:10112000916078E03C494831884205D14FF07461C4
:10113000394A103A91606EE037496031884204D1F3
:101140003649354A103AD16065E0334978318842F2
:1011500004D13349304A103AD1605CE02E499031D5
:10116000884204D12F492C4A103AD16053E02A49D1
:10117000A831884205D14FF03D51274A103AD1603D
:1011800049E02949884204D13D21274A083A1160A3
:1011900041E025491831884205D14FF47461224A53
:1011A000083A116037E020493031884205D14FF4C8
:1011B00074111D4A083A11602DE01B4948318842DC
:1011C00005D14FF07461184A083A116023E01649BE
:1011D0006031884204D11149134A121F11601AE08C
:1011E00011497831884204D10D490F4A121F11600C
:1011F00011E00D499031884204D10A490A4A121F70
:10120000116008E00849A831884204D14FF03D51EF
:10121000054A121F11607047106002403D00002017
:10122000400F002000003D201064024001460020D5
:101230000A6802F001020AB1012000E000207047B4
:1012400030B503460A46002000240B4DAB4201D2C4
:101250000A4901E00849103902F000550DB14C6807
:1012600000E00C68064D2C4004EA02050DB1012097
:1012700000E0002030BD0000106402400060024029
:101280007D0F7D0F10B501F080034BB122B1436992
:1012900043F08003436103E0436923F0800343612B
:1012A00080290BD02AB1036801F01E042343036098
:1012B00004E0036801F01E04A343036010BD0000B6
:1012C00010B500220268134B1A40CC680B68234308
:1012D0004C6923438C692343CC6923430C6A234321
:1012E0004C6A23438C6A23434C6B23438C6B23430C
:1012F0001A430260426922F00702D1E90B3423430A
:101300001A4342610B6943604B6883608B68C3601A
:1013100010BD00003F801CF07047F0B50A46002168
:101320000023002400BF3DE0012505FA01F3156804
:1013300005EA03049C4234D105684F000326BE40F1
:10134000B543056015794E00B54006683543056024
:101350001579012D02D01579022D16D185684F001F
:101360000326BE40B543856055794E00B54086687A
:1013700035438560456801268E40B5434560456824
:1013800096798E40B6B235434560C5684F00032656
:10139000BE40B543C560D5794E00B540C6683543FB
:1013A000C560491C1029BFD3F0BDF0B5002300244F
:1013B0004D07ED0E02FA05F3CE1000F1200555F8A9
:1013C00026504E07F70E0F26BE40B543CF1000F152
:1013D000200646F82750CE1000F1200555F826507B
:1013E00045EA0304CE1000F1200545F82640F0BD83
:1013F00010B504460723012221460848FFF7FAF9F1
:101400000648FFF753FA00BF02210448FFF7BEF970
:101410000028F9D00148FFF7B5F910BD00200140C0
:101420002DE9F04106460A460020002179E001EB53
:10143000810707EBC107DFF800C13CF81730012036
:1014400014E001EB810707EBC107DFF8ECC00CEB00
:10145000470737F810709F4207D901EB810707EB68
:10146000C1070CEB470737F81030401C9042E8D317
:1014700001EB810707EBC107DFF8BC8008EB4708E9
:10148000571C28F8173001EB810707EBC107DFF87D
:10149000A8C03CF81740012014E001EB810707EBDE
:1014A000C107DFF894C00CEB470737F81070A7426C
:1014B00007D201EB810707EBC1070CEB470737F8B1
:1014C0001040401C9042E8D301EB810707EBC107B5
:1014D000DFF8648008EB4708971C28F817400025C0
:1014E00000200BE001EB810707EBC107DFF848C0E4
:1014F0000CEB470737F810703D44401C9042F1D385
:10150000EF1AA7EB040C971EBCFBF7F701EB810C5D
:101510000CEBC10CDFF8208008EB4C0C2CF812709F
:10152000491CB14283D3044F37F81270DFF80CC066
:10153000ACF80070BDE8F081920B00205400002050
:1015400010B553480078002873D000205049087027
:1015500050490870504800785049096808704E4852
:1015600040784E49096848704B4881784B4800687C
:1015700081704948C17849480068C170464801797E
:1015800046480068017144484079444909684871F7
:10159000414881794148006881713F48C1793F489D
:1015A0000068C1713C48017A3C48006801723A48C1
:1015B000417A3A48006841723748817A3748006872
:1015C00081723548C07A35490968C8723248007B53
:1015D0003249096808733048417B304800684173DC
:1015E0002D48407B2C49097B00EB01202C490880C9
:1015F0002948807B2949096888732748C07B274987
:101600000968C8732448007C244909680874224882
:10161000417C2248006841741F48407C1E49097C77
:1016200000EB01201F4908801D48008880B100247C
:101630000AE02BE004F112001749095C1748006822
:1016400014300155601C84B2154800888442F1DBD7
:101650001348008812301049085C104909688874E2
:101660000F48008813300C49085C0C490968C8749D
:10167000002404E0002008490855601C84B2B4F539
:101680007A7FF7DB07480088FFF78AF910BD000072
:1016900012000020100000201C0100201800002073
:1016A000140000201600002000BFFEE72DE9F047DF
:1016B000002400250126A046A1463F4803F0B2FCC5
:1016C00000BF0EE03D48005D972808D13C48845596
:1016D000825D31463BA003F0A5FC701CC6B2601CC5
:1016E000C4B23F4800888442ECDB01245EE0601C09
:1016F000C5B257E03248405D3149095D401A0B28B8
:101700004ED12A46214637A003F08CFC2C48405D80
:10171000001D2A49085C00F0C00040283DD13AA0D5
:1017200003F080FC2648405D401C2449095C2448A5
:10173000405D801C214A105C01EB00292048005DBF
:1017400027490988091A09F11300814221D131A0E2
:1017500003F068FC1A48075D05E01848C05D404486
:1017600000F0FF087F1C09F112008742F5D31448EE
:10177000005D12301149085C404506D1012029491D
:10178000087029A003F04EFC0AE02AA003F04AFCEE
:1017900006E02CA003F046FC02E02FA003F042FC80
:1017A000681CC5B2B542A5DB601CC4B2701EA04265
:1017B0009DDCBDE8F0870000085900081C010020EE
:1017C00004050020B5DA2575B8F6C6F0CABCB7FB2B
:1017D000B5C4CEBBD6C3D4DAB5DA2575CEBB0A0004
:1017E00010000020B5DA2575B8F6BACDB5DA257542
:1017F000B8F6C2FAD7E3CFE0B2EE3131CEBBB5C412
:10180000CCF5BCFE0A000000BFD8D6C6C2EBD5FDA1
:10181000C8B70A00BDD3CADCD6A1B3A4B6C8D5FDEB
:10182000C8B70A0012000020D0A3D1E9BACDD5FD77
:10183000C8B70A00D0A3D1E9BACDB2BBD5FDC8B7AD
:101840000A000000BDD3CADCD6A1B3A4B6C8B2BB9F
:10185000D5FDC8B70A000000BFD8D6C6C2EBB2BBE0
:10186000D5FDC8B70A0000001CB50121502002F0C8
:10187000B1FC0820009001208DF8040000208DF8B4
:10188000060001208DF8070000208DF8050069464C
:101890000C48FFF742FD1020009069460948FFF709
:1018A0003CFD4FF40070009069460748FFF735FD96
:1018B0000820044908831020088340010249183198
:1018C00008801CBD001002400018024000BFFEE767
:1018D00030B505460C4622460021284600F05EF849
:1018E00030BD00003EB500200C4908600C4C02A839
:1018F00001214FF440632246CDE9001009490AA0B6
:1019000000F016F8BDF8080042F21071884203D0CA
:1019100000BFFFF74BFB00BF3EBD00006000002092
:10192000641D0020642900204865617000000000EB
:101930002DE9F84F05460E4617461C46DDE90A8993
:101940004FF0000A00BF00BFFEF752FC824600BF06
:1019500000BF43463A4631462846009400F00EF850
:1019600000BF00BF5046FEF747FC00BF00BF42F279
:101970001070A9F80000BDE8F88F000030B5039C96
:101980000A60651E15444D608A60034D2D68CD6068
:101990000B61014D296030BD600000202DE9F04150
:1019A00005460B4694460027002402E03F021F43F1
:1019B000641C042CFAD3604605F00306294646B1A0
:1019C000344603E001F8013B401E641C08B1042CBE
:1019D000F8D30A4601E080C2001F0428FBD211465A
:1019E00002E001F8013B401E0028FAD1BDE8F08179
:1019F000704708B54FF4A06000F058F825208DF826
:101A0000000001208DF801008DF802008DF8030020
:101A1000684600F00FF846208DF8000000208DF891
:101A200001008DF8020001208DF80300684600F0E7
:101A300001F808BD70B5002100230F22C4781CB343
:101A4000174C246804F4E064C4F5E064C4F307218F
:101A5000C1F10404E3B20A4144789C40E1B28478C5
:101A6000144021430C07210E0E4C05786155047873
:101A700004F01F050124AC4005786D11AD0005F19F
:101A8000E025C5F8004109E0047804F01F050124B1
:101A9000AC40054D0678761145F8264070BD000033
:101AA0000CED00E000E400E080E100E002490143C9
:101AB000024A1160704700000000FA050CED00E0DA
:101AC0007047000010B50348006810B10148006875
:101AD000804710BD7800002070B5044600F0A8F8DB
:101AE00000203E4908703E4908703E4908703E4952
:101AF00008603E4908603E4908703E4908703E490A
:101B000008703E4908603E4908603E4908603E480A
:101B1000006858B13D48056845B13B48066803E098
:101B2000761E002028602D1D002EF9D10020384996
:101B30000860384908603849086038490860384901
:101B4000086038490860384908603849087001F071
:101B5000C1FC01F0FBFC204601F0C0F9208800B177
:101B600070BD204601F018FA208800B1F8E7204641
:101B700001F01EFA208800B1F2E7204601F0F0FAE9
:101B8000208800B1ECE7204601F0D4FC208800B1A9
:101B9000E6E7204601F09AFD208800B1E0E7204604
:101BA00001F066FE208800B1DAE7204601F0BCF9BA
:101BB000208800B1D4E7204602F08CF9208800B1DB
:101BC000CEE7204602F0EAF9208800B1C8E701F02C
:101BD000B1F8FFF775FF00BFC2E700008C000020DE
:101BE0008D000020C0000020100100201401002002
:101BF000A6000020A7000020A8000020B4000020BC
:101C0000B8000020BC0000203857000834570008F6
:101C10006C0000207000002074000020780000207C
:101C20007C0000208000002084000020D6000020DE
:101C3000064800680649096800EB8100054908600C
:101C40000846006820F00700086070473457000815
:101C5000385700081801002010B500242D480078DE
:101C6000012800D010BD00BFFEF7C2FA044600BF35
:101C70002948007828B900BF2046FEF7BDFA00BF0A
:101C8000F0E725480078401E234908700846007890
:101C9000002805DD00BF2046FEF7AEFA00BFE1E7F1
:101CA0001E480078002805DD00BF2046FEF7A4FA94
:101CB00000BFD7E701F0FAFB194908700846007821
:101CC00000EB4000174951F820001749086008460A
:101CD000006816490968884205D100BF2046FEF712
:101CE0008BFA00BFBEE710480068D0F88C00401C9B
:101CF0000D490968C1F88C000D480068401C0C496A
:101D00000860FEF7A4FC00BF2046FEF775FA00BF8E
:101D100000BFA7E78D0000208C000020C00000203D
:101D2000A7000020343600201401002010010020FC
:101D3000CC0000202DE9F04104460E461546002750
:101D400024B945F6C3502880BDE8F08100BF00BF2C
:101D5000FEF74EFA074600BF00BF104820606660DD
:101D600000202062606284F82800E06204F108002C
:101D700001F0A7FA204601F083F909480088401CC9
:101D80000749088000BF00BF3846FEF735FA00BF9C
:101D900000BF0020288000BFD6E700004D555458F2
:101DA000A40000202DE9F04788B005468946174673
:101DB0001C46109E4FF0000A2DB945F6C3503080E6
:101DC00008B0BDE8F0871FB1B7F5004F02D100E0C1
:101DD00000BF03E045F625603080F1E700BF6249AF
:101DE0002868884203D045F6C4503080E8E70CB13B
:101DF0000020206000BF00BFFEF7FAF9824600BF56
:101E000000BF95F82800B8B95848006868620120FA
:101E100085F828000CB1E86A20602946534800681C
:101E200001F046F900BF00BF5046FEF7E5F900BFDC
:101E300000BF00203080C3E74C49686A09688842C7
:101E400012D195F82800401C85F828000CB1E86AEA
:101E5000206000BF00BF5046FEF7CEF900BF00BFB4
:101E600045F282703080ABE707F4004050B100BF0C
:101E700000BF5046FEF7C0F900BF00BF46F2B010E9
:101E800030809DE73A48007800280ADD00BF00BF97
:101E90005046FEF7B1F900BF00BF46F663503080F0
:101EA0008EE7D5F8248098F837003049096891F812
:101EB0003710884206DD2D48006890F837104046FC
:101EC00001F026FC4B4604222946684601F054F9ED
:101ED00000BF00BF5046FEF78FF900BF00BF00F003
:101EE0000FF900BF00BFFEF783F9824600BF00BFB5
:101EF0001E48006890F8350030B101280CD0022847
:101F00001AD0032821D110E01CB118480068806C59
:101F10002060002030801CE01CB114480068806CF8
:101F2000206046F2A910308013E00CB10020206040
:101F300047F2D92030800CE01CB10C480068806C5E
:101F4000206045F6C250308003E046F62E603080B7
:101F500000BF00BF00BF00BF5046FEF74DF900BFF5
:101F600000BF00BF2CE700004D5554581001002061
:101F7000C00000202DE9F84F0446894615464FF071
:101F8000000B24B945F6C3502880BDE8F88FB9F19D
:101F9000000F03D0B9F5004F02D100E000BF03E00D
:101FA00045F625602880F0E700BF52492068884246
:101FB00003D045F6C4502880E7E700BF00BFFEF716
:101FC00017F9834600BF00BF4B49606A0968884221
:101FD0000AD000BF00BF5846FEF70EF900BF00BF91
:101FE00045F281702880D0E7FFF70CF8804628344E
:101FF000C4F804802078401E207014F828090028B6
:102000000ADD00BF00BF5846FEF7F6F800BF00BF6C
:1020100045F283702880B8E721463748006801F010
:1020200091F804F1080ABAF8080068B90020606263
:1020300084F8280000BF00BF5846FEF7DDF800BF57
:1020400000BF00202880A0E72B48006890F83700E8
:102050002949096891F83810884228D02648006834
:1020600001F05AF806462448006890F83810B1424A
:1020700004DA2148006890F8380000E0304606464F
:102080001D48006890F83700B04210DA1A4800681E
:1020900001F0C2FA1848006880F83760304601F055
:1020A00025FA1548006801F099FA14480670DAF824
:1020B000000087686762012084F8280021463846BE
:1020C00000F0F6FF00231A4639462046CDF800807E
:1020D00001F06AF900BF00BF5846FEF78DF800BF57
:1020E00000BF09F4004008B900F00AF80020288079
:1020F00000BF4AE74D55545810010020A6000020AB
:1021000010B5002420480078002800DD10BD1F48CD
:102110000078002800DDF9E700BFFEF769F8044603
:1021200000BF01F0C3F91A4908700846007800EBB7
:102130004000184951F82000174908600846006817
:1021400016490968884205D100BF2046FEF754F8B9
:1021500000BFDBE710480068D0F88C00401C0E4937
:102160000968C1F88C000E480068401C0C490860E2
:10217000FEF768FA00BF2046FEF73EF800BFBFF347
:102180006F8F00BFC2E700008C000020C00000205D
:10219000A700002034360020140100201001002088
:1021A000CC00002070B504460025144800780128B2
:1021B00003D045F68960208070BD11480078FA2868
:1021C00003DB45F209202080F6E700BF00BFFEF7E1
:1021D0000FF8054600BF00BF09480078401C0849B9
:1021E000087001F047FA00BF00BF2846FEF704F868
:1021F00000BF00BF0020208000BFDDE78D00002071
:10220000C000002070B5044600251C480078012855
:1022100003D045F68960208070BD1948007818B950
:1022200046F664502080F7E700BF00BFFDF7E0FFEF
:10223000054600BF00BF12480078401E10490870D4
:102240000846007800280ADD00BF00BF2846FDF7D9
:10225000D3FF00BF00BF46F663502080DCE701F0EB
:1022600017FA00BF00BF2846FDF7C6FF00BF00BF3A
:10227000FFF746FF0020208000BFCDE78D00002043
:10228000C000002010B5044612480078E8B901F0FB
:102290000DF91149087008460078104908700E4879
:1022A000007800EB40000E4951F820000D4908600D
:1022B000084600680C490860012006490870FEF7CE
:1022C00089F943F69920208002E045F68A60208053
:1022D00010BD00008D000020A7000020A6000020F7
:1022E0003436002014010020100100202DE9FF4F9A
:1022F00087B004469046DDE91BA5DDE91496179FDB
:10230000002003902CB947F2AD1028800BB0BDE837
:10231000F08FB8F1000F03D147F24F102880F5E796
:102320001EB946F62F602880F0E7504800688742C3
:1023300003D246F630602880E8E71698B84203D307
:1023400046F631602880E1E7B9F1400F03D346F249
:1023500073202880DAE7B9F13F0F06D14448844260
:1023600003D046F273202880D0E7204601F090FA8F
:10237000002028800AF0010090B10AF0020078B134
:1023800005960020069008E0002105980160059858
:10239000001D05900698401C06900698B842F3D39D
:1023A000169806EB80000490CDE9007A324640464C
:1023B000049B0A9900F04EFA0590C4F828800A9808
:1023C000E0620898206284F8379084F83890059885
:1023D00020600498A0601A98606066622764A4F880
:1023E00044A04FF0000B08E0002104F1780040F811
:1023F0002B100BF1010000F0FF0BBBF1000FF3D02D
:1024000004F16000189900F033FE204600F036F821
:1024100000BF00BFFDF7ECFE039000BF00BF94F8C3
:10242000370001F063F8204601F0D8F8204601F0AB
:10243000E5F910480088401C0E4908800E480078D5
:10244000012807D000BF00BF0398FDF7D5FE00BFED
:1024500000BF5BE700BF00BF0398FDF7CDFE00BFE4
:1024600000BFFFF74DFE00BF50E7000064570008B3
:1024700068350020D40000208D00002010B50446EF
:102480000348006818B1204601490968884710BD13
:102490006C0000202DE9F04104460E464FF0000884
:1024A0005B48844204D147F24C103080BDE8F08193
:1024B0007CB900BF00BFFDF79BFE804600BF00BF98
:1024C0005448046800BF00BF4046FDF795FE00BFBA
:1024D00000BF00BF00BFFDF78BFE804600BF00BFFE
:1024E00094F83600082860D2DFE800F004090E10E6
:1024F000080A0F11204601F08FF861E060E000BF8C
:10250000204601F0B3FB5BE000BF00BF00BF94F8C2
:10251000340008283BD2DFE800F0040705080E0964
:102520000A0600BF00BF33E000BF00BF00BF204667
:1025300000F0FFFE2CE0206BC068456A15F8377F7D
:10254000204600F0F6FE28786978373D884212D0A0
:1025500095F8370094F8371088420CD1284600F0DF
:10256000DBFD074695F83800B84202DA95F83800E6
:1025700000E038460746002084F8340095F837001C
:10258000B84203D03946284601F0C2F800E000BF47
:1025900000BF94F83600032803D094F836000728CB
:1025A00002D1204601F062FB0AE000BF00BF4046B6
:1025B000FDF722FE00BF00BF46F62D60308075E7B4
:1025C00000BFE06B10B1204600F076FD04F1600022
:1025D00000F02CFD204600F021F8204601F026F9FD
:1025E0000D480088401E0C490880204601F050F933
:1025F000FF2084F8360000BF00BF4046FDF7FCFD19
:1026000000BF00BF00203080FFF77AFD00BF4DE71C
:102610006835002010010020D400002010B50446C9
:102620000348006818B1204601490968884710BD71
:102630007000002010B504460348006818B1204619
:1026400001490968884710BD740000202DE9F04752
:1026500080460E4614461D464FF000091EB1B6F5E1
:10266000004F02D100E000BF05E045F6256028805C
:102670000020BDE8F08700BF0CB10020206000BF43
:1026800000BFFDF7B5FD814600BF00BF5F48006891
:10269000C06CA8B35D480068C06C401E5B49096807
:1026A000C8645A480068C76C1CB158480068806C00
:1026B0002060FEF7A7FC55490968896C401A534908
:1026C0000968C1F8A00051480068D0F8A4004F493B
:1026D0000968D1F8A010884207D24C480068D0F8A9
:1026E000A0004A490968C1F8A40000BF00BF4846DD
:1026F000FDF782FD00BF00BF002028803846B8E704
:10270000FFE706F4004058B100BF00BF4846FDF7A0
:1027100073FD00BF00BF46F2B01028800020A8E77C
:102720003B48007800280BDD00BF00BF4846FDF79E
:1027300063FD00BF00BF46F663502880002098E785
:10274000434607220021084600F016FD00BF00BFE7
:102750004846FDF751FD00BF00BFFFF7D1FC00BFA9
:1027600000BFFDF745FD814600BF00BF2748006858
:1027700090F8350020B1012826D0032834D12CE070
:10278000FCB122480068806C2060FEF73BFC1F49CA
:102790000968896C401A1D490968C1F8A0001B48E6
:1027A0000068D0F8A40019490968D1F8A01088423F
:1027B00007D216480068D0F8A00014490968C1F88B
:1027C000A4000020288013E01CB110480068806C31
:1027D000206046F2A91028800AE00CB10020206099
:1027E00047F2D920288003E046F62E60288000BFFB
:1027F00000BF06480068C76C00BF00BF4846FDF731
:10280000FBFC00BF00BF384633E70000100100208A
:10281000C00000202DE9F04106460D4614461DB1CA
:10282000B5F5004F02D100E000BF05E045F6256098
:1028300020800020BDE8F08100BFFEF7E3FB80466A
:10284000234642462946304601F08CF80746384672
:10285000F0E70000F0B50446DDE9055602EB85001F
:1028600020F007004FF0807C071F3846C7F800C0F3
:10287000071F38463C60DFF834C2071F3846C7F8E8
:1028800000C04FF0123C071F3846C7F800C04FF099
:10289000033C071F3846C7F800C04FF0023C071F33
:1028A0003846C7F800C0071F38463B60071F384648
:1028B00039604FF0113C071F3846C7F800C04FF091
:1028C000103C071F3846C7F800C04FF0093C071FEF
:1028D0003846C7F800C04FF0083C071F3846C7F815
:1028E00000C04FF0073C071F3846C7F800C04FF044
:1028F000063C071F3846C7F800C04FF0053C071FCD
:102900003846C7F800C04FF0043C071F3846C7F8E8
:1029100000C006F00407002F7ED04FF0007C071F98
:102920003846C7F800C0DFF888C1071F3846C7F827
:1029300000C0DFF880C1071F3846C7F800C0DFF8C5
:1029400078C1071F3846C7F800C0DFF870C1071FFD
:102950003846C7F800C0DFF868C1071F3846C7F817
:1029600000C0DFF860C1071F3846C7F800C0DFF8B5
:1029700058C1071F3846C7F800C0DFF850C1071F0D
:102980003846C7F800C0DFF848C1071F3846C7F807
:1029900000C0DFF840C1071F3846C7F800C0DFF8A5
:1029A00038C1071F3846C7F800C0DFF830C1071F1D
:1029B0003846C7F800C0DFF828C1071F3846C7F8F7
:1029C00000C0DFF820C1071F3846C7F800C0DFF895
:1029D00018C1071F3846C7F800C04FF0834C071FC7
:1029E0003846C7F800C0DFF804C1071F3846C7F8EB
:1029F00000C0DFF8FCC0071F3846C7F800C0DFF88A
:102A0000F4C0071F3846C7F800C0DFF8ECC0071F46
:102A10003846C7F800C000E047E0DFF8E0C0071F15
:102A20003846C7F800C0DFF8D8C0071F3846C7F8D7
:102A300000C0DFF8D0C0071F3846C7F800C04FF00D
:102A4000824C071F3846C7F800C0DFF8BCC0071F1C
:102A50003846C7F800C0DFF8B4C0071F3846C7F8CB
:102A600000C0DFF8ACC0071F3846C7F800C04FF001
:102A7000814C071F3846C7F800C0DFF898C0071F11
:102A80003846C7F800C04FF0804C071F3846C7F8DB
:102A900000C04FF07E5C071F3846C7F800C04FF0FB
:102AA000000C071F3846C7F800C0F0BD4D390008BC
:102AB0000000F8410000F0410000E8410000E04162
:102AC0000000D8410000D0410000C8410000C041D2
:102AD0000000B8410000B0410000A8410000A04142
:102AE00000009841000090410000884100007041C2
:102AF00000006041000050410000404100003041B2
:102B000000002041000010410000E0400000C040F3
:102B10000000A0400000404010B52948006890F82F
:102B2000440000F0040020B1254909680868FDF759
:102B30003BFD2448006890F8440000F0040020B1F8
:102B4000204909680868FDF73CFD1F48006810B17E
:102B50001D4800688047FEF755FA0446184800688B
:102B600018490968884215D015480068D0F89400C3
:102B7000201A13490968C1F8900011480068D0F87C
:102B800098000F490968D1F8901008440C49096869
:102B9000C1F898000B480068C0F8944008480068E5
:102BA000D0F8B00009490968884205D20748006892
:102BB00003490968C1F8B00000200449086010BD4D
:102BC000100100201401002080000020BC00002023
:102BD0002DE9F04105460E461446002723480078AB
:102BE000002804DD46F663502080BDE8F08136B150
:102BF000022E05D0042E0AD0082E09D101E000BF14
:102C000000BF1DB947F27E202080EEE704E003E01C
:102C100045F625602080E8E700BF00BF00BFFDF754
:102C2000E7FA074600BF00BF234632462946104850
:102C3000006800F0BDFF208838B100BF00BF3846F3
:102C4000FDF7DAFA00BF00BFCFE70948006800F0DF
:102C5000E3FC00BF00BF3846FDF7CEFA00BF00BF5F
:102C6000FFF74EFA0020208000BFBEE7C000002022
:102C70001001002008B500F01FF86A4600210A483C
:102C8000FFF7C8FD09480068401E0849086008466B
:102C9000006838B90648006808606A46002105489F
:102CA000FFF7B8FD08BD0000343900200C010020FA
:102CB00008010020243A002010B50348006810B134
:102CC00001480068804710BD8400002010B5002432
:102CD00000BF00BFFDF78CFA044600BF00BF0848E4
:102CE0000078401C0649087000BF00BF2046FDF771
:102CF00083FA00BF00BFFFF7BDFFFEF7ADFF10BDB9
:102D00008C00002001464A1E4FF0E0235A61084A19
:102D1000106820F07F4000BF10601A46126942F030
:102D200005021A611A46126942F002021A617047DE
:102D300020ED00E0244A2549254A264A2649274A0B
:102D40002748284A284A294A294A2A482A482B4AF1
:102D50002B482C4A2C482D4A2D482E482E482F48C7
:102D60002F4A304A304A3148314A324A3248334891
:102D700033483448344835483548364A364A374A65
:102D8000374A384838483948394A3A4A3A4A3B4833
:102D90003B483C483C493D483D4A3E4A3E4A3F4A02
:102DA0003F4A404A404A4148414A424A42484348D1
:102DB000434A444A4448454A454A4648464800BF73
:102DC00000BF00BF704700009C570008045900086E
:102DD0009D5700089E570008A0570008A4570008F8
:102DE000A8570008A5570008D0570008D157000879
:102DF000D2570008D4570008D6570008DA57000801
:102E0000DC570008FC570008FE570008005800086F
:102E1000025800080458000806580008085800081E
:102E200038580008395800083A5800083C5800083B
:102E30003E5800083F580008405800084258000813
:102E40004458000846580008485800084A580008E6
:102E50004C5800087C5800087D5800087E5800082F
:102E60007F580008805800088258000884580008DD
:102E7000AC580008AD580008AE580008AF5800081C
:102E8000B0580008B2580008B4580008B8580008F4
:102E9000B9580008BA580008BB580008BC580008C8
:102EA000BD580008BE580008BF580008C0580008A8
:102EB000C2580008C3580008C4580008C658000883
:102EC000C8580008C9580008CC580008FC58000829
:102ED000FD580008FE580008005900080021034A68
:102EE0001160034A118001807047000090000020AB
:102EF00094000020002414E000BF00BFFDF778F923
:102F0000044600BF00BF07480068401C0549086030
:102F100000BF00BF2046FDF76FF900BF00BFFEF7FE
:102F2000D1FDE9E78800002010B58AB004460020F2
:102F30000E4908600B2000210591CDE90704069198
:102F400008460B4909680B4A12680B4B1B68CDE910
:102F50000132CDE903103F200023084A08A1009068
:102F60000C48FFF7C3F90AB010BD0000880000202C
:102F7000105700080C57000808570008F52E0008E5
:102F800075432F4F532D4949492049646C6520549E
:102F900061736B00683500200021034A1160034A09
:102FA0001180018070470000980000209C000020E4
:102FB00070B501461A4D2D681DB945F21E750D807C
:102FC00070BD184D2D881DB945F21D750D80F7E7B0
:102FD000134D28682A681032124D2D886D1EACB230
:102FE000002308E00260002545600581C5601030BF
:102FF00010325D1CABB2A342F4DB002505604560D6
:103000000581C560064D2D68074E3560054D2D883C
:10301000B5800025F58035810D8000BFD0E7000028
:1030200048570008405700082836002010B50146D0
:1030300048894B89002B17DD0A680C4B1B6813600D
:103040000A4C4B6823602346DB884C891B1B074CCA
:10305000E38023469B884C892344044CA3800023AF
:103060004B818B810B604B6010BD00002836002027
:10307000018100224281828102604260704700002B
:1030800009A1C161002141610849096811B9002104
:10309000816105E005490968816104490968486161
:1030A000024908607047000020000000A0000020D6
:1030B000C26B0A62C16370472DE9F8430546EC6BA9
:1030C00026E0D4F82090FDF79DFF0646E6622146F3
:1030D000284600F037F804F10808B8F8080020B9CD
:1030E000002084F82800606211E0D8F800008768AA
:1030F0006562012084F8280021463846FFF7D8FF92
:1031000000231A4639462046009600F04DF94C46F9
:10311000002CD6D1BDE8F88330B504463F2004F139
:103120003C010BE00D68AB682BB19D6895F837202A
:10313000824200DA10460D6805F120010D68002D6D
:10314000F0D130BD024602F13C0002E0036803F119
:10315000200003688B42F9D103681B6A0360704743
:103160000021034A1160034A11800180704700006A
:10317000A0000020A40000202DE9F04105460C46E7
:1031800016461F461548006880F834600020134931
:10319000096881F8350039461048006800F0A2FA45
:1031A0006CB104F10808EC60012229460B48006864
:1031B00000F016F82946404600F088F807E00020A5
:1031C00006490968A1F846000449096808630348EC
:1031D0000168204600F018F8BDE8F08110010020D9
:1031E00010B5A0F84620016300230AE000244C60DB
:1031F0000C600C614C610C83CC61886020315C1CDC
:10320000A3B29342F2DB10BD30B548B14568C1F8B6
:10321000BC5000F10804226893681D6AC56113E080
:1032200091F83450022D02D0072D08D103E007A5F4
:10323000C1F8BC5007E007A5C1F8BC5003E008A5E1
:10324000C1F8BC5000BF00BF30BD00005461736BBB
:10325000205100005461736B2053656D0000000025
:103260002000000030B507A5C1F8BC5000F10804EB
:1032700022681AB193681D6AC56101E001A5C561A4
:1032800030BD0000200000002DE9F0410446256B10
:10329000B4F8467011E0D5F80C8008F108063089C2
:1032A000012807D92946304600F05DF82946304606
:1032B00000F00CF82035781E87B2002FEBD1BDE866
:1032C000F08100210160416001817047F0B58E6896
:1032D00096F8375007893FB90127078100274F60CB
:1032E0000F600160416023E007897F1C078102684D
:1032F00006E0946894F83770AF4200DD02E052684F
:10330000002AF6D100BF32B900274F6043680B6036
:10331000596041600CE017682FB9116000270F60F9
:103320004A60016004E013680B604A6059601160F4
:10333000F0BD2DE9F0410446256BB4F846600AE083
:10334000D5F80C8008F108072946384600F00BF83C
:103350002035701E86B2002EF2DC0020A4F8460054
:103360002063BDE8F08110B50489012C03D100244D
:103370000460446011E00C6824B94A6800241460B9
:1033800002600AE04C6824B90B6800245C6043606A
:1033900003E00B684A685A6013600489641E048164
:1033A00000244C600C6010BD2DE9F84306460C4625
:1033B00017469846089D94F8360008285BD2DFE847
:1033C00000F0040508090607323300BF00BF00BF44
:1033D00052E000BF94F83400032807D143463A4630
:1033E00021463046009500F04AF803E0A765A4F8AE
:1033F0005C80A56436B12046FFF79BFF214630462E
:10340000FFF730FF94F83600032802D1204600F081
:103410002DFC204600F0ACF800203434A070607021
:1034200004F8340928E000BF94F83400032807D1D9
:1034300043463A4621463046009500F020F803E026
:10344000A765A4F85C80A56436B12046FFF771FF3C
:1034500021463046FFF706FF94F83600072802D1D0
:10346000204600F003FC04203434A070002060707B
:1034700004F8340900E000BF00BFBDE8F883F0B5F0
:103480000446059E086BB1F846500AE0C768A7429B
:1034900004D1046142610383C66104E020306F1EE1
:1034A000BDB2002DF2DC00BFF0BD000070B50025FC
:1034B000074C03E005F12000C5B2241D2068002858
:1034C000F8D02068FCF79FFE2844C5B2284670BD9E
:1034D00064000020002004E00021034A42F820108C
:1034E000401C0228F8D370476400002030B5420920
:1034F00000F01F030121C3F11F04A140034C54F845
:1035000022400C43014D45F8224030BD64000020AC
:1035100030B5420900F01F030121C3F11F04A1408F
:10352000034C54F822408C43014D45F8224030BDF5
:10353000640000200021034A1160034A11800180C9
:1035400070470000AC000020B000002000210AE01D
:1035500001EB4102054B03EB820000220281026075
:1035600042604A1CD1B24029F2D370473436002061
:1035700010B5044694F83700FFF7B8FF94F8370009
:1035800005490978884203D1204600F027F802E077
:10359000204600F003F810BDA600002010B590F8FA
:1035A000373003EB43030C4C04EB83010B893BB92D
:1035B00001230B810023C36003610860486009E0B8
:1035C0000B895B1C0B810B68C360002303610A68D5
:1035D0001061086010BD00003436002010B590F86E
:1035E000373003EB43030B4C04EB83010B893BB9EE
:1035F00001230B810023C36003610860486008E079
:103600000B895B1C0B810023C3604A680261D06098
:10361000486010BD343600202DE9F041054695F88C
:10362000370000EB4000124901EB80042F69EE687F
:1036300087B946B9002020812060606095F8370086
:10364000FFF766FF0EE02089401E208100203061D8
:10365000266007E02089401E2081FE600EB9676069
:1036600000E0376100202861E860BDE8F0810000DB
:103670003436002010B504480078012803D1FDF746
:10368000C1FC0249086010BDC0000020B400002049
:1036900010B50A48007880B9FDF7B4FC08490968FC
:1036A000441A08480068A04201D20648046006484F
:1036B0000068A04201D20448046010BDC000002090
:1036C000B4000020B8000020BC0000200021034A04
:1036D0001160034A1180018070470000C40000207F
:1036E000C800002070B504460D4645B12A46214663
:1036F000064800F019FA032084F8360002E00220A0
:1037000084F836002046FFF787FF70BDE8000020F0
:103710002DE9F04104460D4600BF002694F83770AD
:1037200094F8360008285FD2DFE800F004191E1F65
:103730001A1B20212046FFF76FFF84F8375094F8BA
:103740003700FFF7D3FE2C480068844203D120469F
:10375000FFF724FF02E02046FFF740FF46E000BFEE
:1037600000BF84F8375041E000BF00BF00BF84F8BD
:10377000375094F83400082831D2DFE800F03004E4
:1037800031050B06073200BF00BF00BF2046FFF720
:103790007BFD27E02046FFF777FD206BC068466A77
:1037A000AF4205DD96F83700A84217DC002615E089
:1037B00096F83700B84211D13046FFF7ADFC054608
:1037C00096F83800A84202DA96F8380000E0284659
:1037D000054696F83700A84200D1002602E000BF57
:1037E00000BF00BF00BF01E0BDE8F08100BF34466C
:1037F000002C92D100BFF7E7100100200021C0F893
:10380000B4100949096819B90021C0F8B81007E0D7
:1038100005490968C0F8B81003490968C1F8B4003F
:103820000149086070470000D0000020D0F8B420A3
:10383000D0F8B8104AB90D4B196011B10023C1F886
:10384000B4300023C0F8B8300FE029B90023C2F823
:10385000B830C0F8B43008E0C2F8B810C1F8B420ED
:103860000023C0F8B830C0F8B4307047D000002052
:103870000021044A1160044A1180044A1160018049
:1038800070470000D0000020D4000020CC000020B1
:1038900070B5044600202060A0606060E060206198
:1038A0006061A061E06126A0206200206062A062E9
:1038B000E062A064A065A4F85C00002104F160004F
:1038C000FFF7D6FB002020676067E067A4F884005C
:1038D000C4F88000002506E0002104F1780040F8DB
:1038E0002510681CC5B2002DF6D000203434A0612C
:1038F000E0662067E06084F85200A067606720827D
:10390000E0612062A4F85400A4F85600A065E065C8
:10391000FDF778FB0646266600206066E0672070AB
:103920006070A0704020E07020710020A060C4F89A
:103930008000C4F8840004A0C4F88800343C70BD42
:103940003F5461736B0000002000000008B504487C
:103950000068FEF76FFE69460020FEF79BFD08BD7C
:10396000100100202DE9F8430446884617461D46FD
:103970004FF0000900BF00BFFCF73AFC814600BFD2
:1039800000BF0CB967480468A7640020288094F839
:103990003600082876D2DFE800F00405505106070B
:1039A000525300BF00BF00BF0420012804D00228EA
:1039B00013D0042833D122E0E06CFF280CD100BFE3
:1039C00000BF4846FCF718FC00BF00BF46F6C550D4
:1039D00028800020BDE8F88322E04FF6FF71E06CFC
:1039E00088420BD100BF00BF4846FCF705FC00BF72
:1039F00000BF46F6C55028800020EBE710E0E06CE1
:103A0000401C58B900BF00BF4846FCF7F5FB00BF9B
:103A100000BF46F6C55028800020DBE700E000BF6D
:103A200000BFE06C401CE064E66C00BF00BF48468D
:103A3000FCF7E2FB00BF00BF71E000BF00BF00BFAA
:103A400094F83400072815D100231A462146184659
:103A50000097FFF7A9FCE66C00BF00BF4846FCF7E3
:103A6000CBFB00BF00BF08F4004000284AD1FEF79E
:103A700047FB47E00420012805D0022813D0042882
:103A800033D122E03FE0E06CFF280BD100BF00BF44
:103A90004846FCF7B1FB00BF00BF46F6C550288082
:103AA000002097E722E04FF6FF71E06C88420BD1CF
:103AB00000BF00BF4846FCF79FFB00BF00BF46F6B3
:103AC000C5502880002085E710E0E06C401C58B904
:103AD00000BF00BF4846FCF78FFB00BF00BF46F6A3
:103AE000C5502880002075E700E000BF00BFE06CF3
:103AF000401CE064E66C00BF00BF4846FCF77CFB5E
:103B000000BF00BF0BE000BF00BF4846FCF774FBDE
:103B100000BF00BF46F62D602880002600BF00BF12
:103B2000304657E71001002070B51546066846B9C3
:103B30000D6500264E618E61C86101600126868098
:103B400033E0046802682B4624E0166D9E421DD3C4
:103B500096696EB90B6500268E614A61C861166D63
:103B6000F61A1665916101608688761C86800CE0E5
:103B700094690B658C614A61C861166DF61A166509
:103B8000916161618688761C868070BD166D9B1B75
:103B900014465269002AD8D10B658C6100264E610B
:103BA000C86161618688761C868000BFEDE70000F1
:103BB0002DE9F04104460D4690461F46B8F1040F2A
:103BC0000ED1284800682E1A16F5803F01D8002E25
:103BD0003CD10020206547F27E203880BDE8F0818E
:103BE000B8F1080F29D11F49606D0968081AA84269
:103BF00005D92E461B4800682844606526E019490F
:103C0000606D0968081A2E1A16F5803F00D886B92B
:103C10001449606D0968081AB0FBF5F005FB005007
:103C2000616D084460650020206547F27E20388081
:103C3000D4E7606D2844606508E00DB12E4605E0CC
:103C40000020206547F27E203880C7E7012084F8F5
:103C50003600324621460448FFF766FF00203880D0
:103C600000BFBBE7D8000020E000002030B5C269EB
:103C700083694169ABB929B9002414609480046553
:103C8000C4611EE000248C610C6D056D2C440C6534
:103C900011609488641E9480002444610465C461AA
:103CA0000FE0596121B18B610C6D056D2C440C65E1
:103CB000002484619488641E948000244461046517
:103CC000C46130BD2DE9F0474FF0000900BF00BFCF
:103CD000FCF78EFA814600BF00BFFDF793F9064658
:103CE00000271D4D2C683CB3206D401E20651FE051
:103CF000781C87B294F83600012806D1002084F899
:103D000036002046FFF734FC06E094F8360005281C
:103D100002D1042084F83600606928602C6814B948
:103D20000020A88007E0A888401EA8800020A0618D
:103D3000206D0028DCD000BFEF80FDF763F9A0EB19
:103D4000060800BF00BF4846FCF756FA00BF00BF98
:103D50004046BDE8F0870000E00000202DE9F05F5C
:103D60004FF0000B00BF00BFFCF742FA834600BFD4
:103D700000BFFDF747F907464FF000083B4D2C68A0
:103D8000002C63D0206D401E20655BE008F101002F
:103D90001FFA80F8002694F83400042802D1206B22
:103DA000C068466A0020A065A4F85C00FDF72AF907
:103DB000A0642046FFF7BDFA94F83600032806D128
:103DC0002046FFF7D5FB002084F8360006E094F883
:103DD0003600072802D1042084F83600032084F836
:103DE0003500002084F8340006B396F8370096F8C2
:103DF000381088421AD096F8370094F83710884265
:103E000014D13046FFF788F9814696F838004845C6
:103E100002DA96F8380000E04846814696F8370006
:103E2000484503D049463046FFF772FC6069286078
:103E30002C6814B90020A88007E0A888401EA8803C
:103E40000020A061206D0028A0D000BFA5F806804A
:103E5000FDF7D8F8A0EB070A00BF00BF5846FCF7F3
:103E6000CBF900BF00BF5046BDE8F09FE80000203E
:103E700008B5002728E06B46002211461046FEF7E1
:103E8000E5FBBDF80000F8B900BF00BFFCF7B0F9D2
:103E9000074600BF00BF0D480068401C0B49086082
:103EA00000BF00BF3846FCF7A7F900BF00BFFFF70F
:103EB00009FF0646FFF752FF0546741904480068DB
:103EC000A04201D202480460D5E70000D8000020DB
:103ED000DC00002010B58AB00446002020490860AC
:103EE00020490860204908601E498880C8801E4912
:103EF0008880C8801D48006820B947F212202080C1
:103F00000AB010BD1A4800681A490968884203D2ED
:103F100047F213202080F3E7174800783F2803D3A7
:103F200047F211202080EBE70B2000210591CDE91D
:103F30000704069108460E490A68104909680B4BA8
:103F40001B68CDE90131CDE903200B48007800233F
:103F50000B4A0CA100901048FEF7C8F900BFCFE74C
:103F6000D8000020E0000020E80000207057000882
:103F700078570008645700086C5700087457000809
:103F8000713E000875432F4F532D4949492054690C
:103F9000636B205461736B003439002010B58AB014
:103FA000044600202F4908602F4908602F490880E7
:103FB0002F48006840B12F4800682D490968B0FBC0
:103FC000F1F02D49086006E02A4800680A21B0FB9C
:103FD000F1F0294908602848006828490860002055
:103FE0002749086027490860224627A12A48FDF78B
:103FF000A1FE208808B10AB010BD2848006818B991
:1040000047F247302080F6E72548006825490968CF
:10401000884203D247F248302080ECE722480078FB
:104020003F2803D347F246302080E4E70B200021ED
:1040300005910A46CDE907040691194800681B4915
:104040000968164B1B68CDE90131CDE9030216481A
:1040500000780023164A17A100901C48FEF746F985
:1040600000BFC8E7F0000020F8000020F4000020A6
:104070008457000868570008080100200C01002040
:1040800004010020000100204F5320546D72204D88
:104090007574657800000000F43900208857000826
:1040A0009057000864570008805700088C57000894
:1040B000E940000875432F4F532D49494920546961
:1040C0006D6572205461736B00000000243A00207B
:1040D0000EB502A801AB0022114600900148FDF781
:1040E00061FE0EBDF43900201CB53FE001AB6A460D
:1040F00000210846FEF7AAFAFFF7EAFFFCF782FF65
:1041000006461B480068401C1949086019480468A5
:104110001FE001A8FEF746F8D4F81080A069401E01
:10412000A061A06980B9A08C022802D1206AA06198
:1041300005E0204600F022F8032084F82600A56858
:1041400015B12046E168A847444601A8FEF75AF891
:1041500000BF002CDDD1FCF755FF871B00F030F8C5
:1041600005480068B84201D203480760BEE7000076
:1041700004010020F80000200001002010B50E4BC3
:104180001B68834206D101690B4B196039B10023CA
:104190004B6104E0416902690A6102B15161012386
:1041A00080F82630002303614361044B1B885B1EAB
:1041B000024C238010BD0000F8000020F400002015
:1041C00008B56A4600210248FDF7D4FE08BD00008C
:1041D000F439002029B1064A12680243044B1A60E0
:1041E00004E0034A12688243014B1A6070470000E2
:1041F0003038024029B1064A12680243044B1A6063
:1042000004E0034A12688243014B1A6070470000C1
:104210004438024029B1064A12680243044B1A602E
:1042200004E0034A12688243014B1A6070470000A1
:1042300024380240F0B50021002200240225002687
:104240000223324F3F6807F00C0121B1042905D049
:10425000082937D105E02E4F076036E02D4F076063
:1042600033E02A4F3F1F3F68C7F38056274F3F1F59
:104270003F6807F03F036EB1264FB7FBF3F7DFF857
:104280008CC0ACF1040CDCF800C0CCF3881C07FB3C
:104290000CF40CE01E4FB7FBF3F7DFF870C0ACF185
:1042A000040CDCF800C0CCF3881C07FB0CF4174F9F
:1042B0003F1F3F68C7F301477F1C7D00B4FBF5F744
:1042C000076002E0124F076000BF00BF0F4F3F685A
:1042D00007F0F0010909104F7A5C0768D740476082
:1042E0000A4F3F6807F4E051890A0B4F7A5C476830
:1042F000D7408760054F3F6807F46041490B064F80
:104300007A5C4768D740C760F0BD000008380240BB
:104310000024F40000127A00000000207047000022
:104320000448007804490968087042200249096875
:1043300048707047580000204C0000200548007865
:1043400040F03000044909680870012002490968FA
:104350004870704758000020440000203120FE497A
:1043600009680870FC4909684870FB490968887049
:10437000F9490968C870F849096808712D20F6499B
:10438000096848713020F449096888713420F2497D
:104390000968C8714A20F049096808724320EE494B
:1043A000096848724720EC49096888724820EA4940
:1043B0000968C8721120E849096808731121E648A4
:1043C00000684173E44800688173E3480068C17382
:1043D000E14800680174E048006841740220DE4949
:1043E000096888740021DC480068C1740120DA493A
:1043F000096808750221D848006841751821D64817
:10440000006881750120D4490968C8750021D24827
:1044100000680176D048006841760121CE480068E6
:1044200081760120CC490968C8760221CA48006813
:1044300001771821C848006841770020C6490968FB
:1044400088773021C4480068C1770021C2480068DD
:1044500080F82010C048006880F821100220BE4972
:10446000096881F822000621BB48006880F8231003
:104470000021B948006880F82410B748006880F827
:1044800025100120B449096881F826000021B248AE
:10449000006880F827100020AF49096881F82800DB
:1044A0000021AD48006880F82910AB48006880F80A
:1044B0002A10A948006880F82B10A748006880F8E7
:1044C0002C100120A449096881F82D000121A2487F
:1044D000006880F82E10A048006880F82F10002196
:1044E0009D48006880F830109B48006880F83110C3
:1044F0009948006880F832109748006880F83310B7
:104500009548006880F8341011209349096881F8B3
:10451000350011219048006880F836108E480068F8
:1045200080F837108C48006880F838108A48006896
:1045300080F839108848006880F83A10864800688A
:1045400080F83B108448006880F83C10824800687E
:1045500080F83D108048006880F83E107E48006872
:1045600080F83F107C48006880F840107A48006866
:1045700080F841107848006880F84210764800685A
:1045800080F843107448006880F844100520724990
:10459000096881F8450000216F48006880F84610DE
:1045A0006D48006880F847106B48006880F8481034
:1045B00012206949096881F84900002166480068AD
:1045C00080F84A106448006880F84B106248006820
:1045D00080F84C1001206049096881F84D000021E5
:1045E0005D48006880F84E105B48006880F84F1006
:1045F0005948006880F8501001205749096881F82F
:10460000510000215448006880F852105248006858
:1046100080F853105048006880F8541001204E492B
:10462000096881F8550000214B48006880F8561051
:104630004948006880F857104748006880F85810CB
:10464000FF204549096881F85900FF214248006868
:1046500080F85A104048006880F85B103E480068B7
:1046600080F85C103C48006880F85D103A480068AB
:1046700080F85E103848006880F85F10364800689F
:1046800080F860103448006880F861103248006893
:1046900080F862103048006880F863102E48006887
:1046A00080F864102C48006880F865102A4800687B
:1046B00080F866102848006880F86710264800686F
:1046C00080F868102448006880F869102248006863
:1046D00080F86A102048006880F86B101E48006857
:1046E00080F86C101C48006880F86D101A4800684B
:1046F00080F86E101848006880F86F10164800683F
:1047000080F870101448006880F871101248006832
:1047100080F872101048006880F873100E48006826
:1047200080F874100C48006880F875100A4800681A
:1047300080F876100848006880F87710064800680E
:1047400080F878100448006880F879100248006802
:1047500080F87A10004801E028000020006880F806
:104760007B102248006880F87C102048006880F8A0
:104770007D101E48006880F87E101C48006880F894
:104780007F101A48006880F88010022017490968D5
:1047900081F8810012201549096881F88200012101
:1047A0001248006880F8831018211048006880F8CB
:1047B000841001200D49096881F885000B490968BA
:1047C00081F8860000200949096881F887000021E6
:1047D0000648006880F888100448006880F889104E
:1047E0000248006880F88A10704700002800002006
:1047F0002DE9F0412DED0A8B002507E00520FCF79F
:10480000F7FD484921F81500681CC5B20A2DF5DBF3
:104810000A210120FCF704FE4348018843A000F070
:1048200001FC41480088FBF70BFE9FED470B53EC62
:10483000102BFBF724FD9FED460B53EC102BFBF7E1
:1048400090FD9FED450B53EC102BFBF718FD9FEDF2
:10485000440B53EC102BFBF712FDFBF7FEFD424916
:10486000088008460088642190FBF1F201FB1206E3
:104870003D48008890FBF1F7324639463BA000F0F6
:10488000D1FB39480088A0F5F170642148437821B4
:1048900090FBF1F0C4B20A2094FBF0F100FB114050
:1048A0000A2194FBF1F100EB0110C4B2214633A0C0
:1048B00000F0B8FB2C480088642190FBF1F201FB6A
:1048C00012000A2190FBF1F201FB1200264909882F
:1048D000642291FBF2F302FB13110A2291FBF2F125
:1048E00000EB01102A49096808701F4800886421FC
:1048F00090FBF1F0264909684870254800688470EB
:10490000002023490968C87000212148006801710E
:104910001F48006841711E4800688171BDEC0A8B18
:10492000BDE8F081920B0020540000204144B2C940
:10493000BCAFCEAA25752020414443B2C9BCAFCD3F
:10494000EAB3C90A00000000000000000000F03FC8
:104950000000000000009040000000000090744043
:10496000000000000000004056000020B5E7D1B96B
:10497000CEAA25752E25755620200A00B5E7C1BFA1
:10498000B0D9B7D6B1C8CEAA3078253258200A009F
:1049900034000020002003490968087001490968B3
:1049A000487070473C00002000200F4909680870DB
:1049B0000D49096848700C49096888700A490968F6
:1049C000C8700021084800680171074800684171FB
:1049D0000020054909688871002103480068C171F9
:1049E0000148006801727047500000200CB500209B
:1049F000019000903448006840F4803032490860EB
:104A000000BF3148006800F4003000900198401C5D
:104A10000190009818B90198B0F5A04FF1D12A483B
:104A2000006800F4003010B10120009001E0002087
:104A300000900098012846D123484030006840F09B
:104A400080502149403108602048006840F44040CF
:104A50001E4908601C48083000681B49083108607E
:104A60000846006840F4004008600846006840F4CA
:104A7000A05008601648091F0860081F006840F031
:104A80008070091F086000BF0F48006800F00070C8
:104A90000028F9D040F205700E4908600A48083035
:104AA000006820F0030008490831086008460068E3
:104AB00040F00200086000BF03480830006800F0C2
:104AC0000C000828F8D10CBD0038024000700040EE
:104AD00008544007003C024010B51548006840F4F7
:104AE0007000134908601348006840F00100114944
:104AF000086000200F49083108600E4800680E4920
:104B000008400C4908600D48091D0860081F00682E
:104B100020F48020091F0860002006490C3108603D
:104B2000FFF764FF4FF0006001498039086010BD55
:104B300088ED00E000380240FFFFF6FE1030002450
:104B400070B5002600BF00BFFBF752FB064600BF52
:104B500000BF44480078401C4249087000BF00BFB5
:104B60003046FBF749FB00BF00BF40F225513E48ED
:104B700000F096F9002872D040F225513A4800F032
:104B800093F8394800F046FAC4B2E92C45D1002028
:104B9000364908703648374909884454214636A0BA
:104BA00000F040FA33480088142190FBF1F201FB39
:104BB0001200132802D132A000F034FA2D480088E8
:104BC00013281BDBFCF772FD2848007890B90025FC
:104BD00004E0002026494855681CC5B225480088D5
:104BE000401C8542F5DB00202249088025A000F00A
:104BF00019FA34E027A000F015FA30E01D480088CB
:104C0000401C1C4908800846008840F2E731884271
:104C100025DB08461749088021E015481549098811
:104C20004454214614A000F0FDF9124800881421D4
:104C300090FBF1F201FB1200132802D110A000F04A
:104C4000F1F90C480088401C0A4908800846008891
:104C500040F2E731884202DB084606490880FCF74B
:104C6000FBFF70BD8C0000200010014012000020EE
:104C70001C010020100000202530327820000000A8
:104C80000A000000BDD3CAD5CAFDBEDDB2BBD5FD4A
:104C9000C8B70A00BDD3CAD5CAFDBEDDCDEAB3C9C7
:104CA000B2A2D5FDC8B70A0010B50022002340F615
:104CB0006A14A14200D100BF0A1201249440A3B299
:104CC000DC43048010BD21B1828942F4005282810C
:104CD00004E082894DF6FF731A408281704700001C
:104CE00000B587B001210846FFF774FA01211020B2
:104CF000FFF780FA07220A212048FCF756FB07221B
:104D000009211E48FCF751FB00208DF81A000120F4
:104D10008DF81B0002208DF818000002059002207B
:104D20008DF8190005A91548FCF7F7FA02208DF84F
:104D300018004002059005A91048FCF7EEFA4FF460
:104D4000E13001900020ADF80800ADF80A00ADF8A0
:104D50000C00ADF810000C20ADF80E0001A90848B9
:104D600000F0EEF8012240F22551054800F0C2F8AB
:104D700001210348FFF7A7FF07B000BD0000024074
:104D8000001001401AB1838A0B43838202E0838AB8
:104D90008B4383827047000000B58FB001218805E6
:104DA000FFF718FA1B48FCF795F900BF1948FCF704
:104DB0003DFA0028FAD14FF00060009016480190AB
:104DC00040200390002005904FF480600690002062
:104DD0000790089009904FF480300A9000200B90C3
:104DE00003200C9000200D900E9069460948FCF7B6
:104DF00067FA012210210748FCF744FA01228021BA
:104E00000548001FFFF7BEFF00210248FCF756F9D6
:104E10000FB000BDB86402400410014070B50546F3
:104E20000E4617A000F0FEF800240FE0315D18A038
:104E300000F0F8F8142094FBF0F100FB1140132867
:104E400002D115A000F0EEF8601C84B2AC42EDD3A4
:104E500011A000F0E7F81148066010480838056016
:104E60000021001FFCF72AF94FF020510B480C38A5
:104E7000FCF70AF9012109480C38FCF71FF970BD4D
:104E8000444D41BFAACABCB7A2CBCD0A0000000066
:104E900025303278200000000A000000C46402407F
:104EA00070B50246002400230025002040F66A1653
:104EB000B14200D100BFC1F3421501F01F0301262A
:104EC00006FA03F3012D02D19689334006E0022D44
:104ED00002D1168A334001E0968A33400C12012633
:104EE00006FA04F41688344013B10CB1012000E036
:104EF000002070BDF0B503460024002600250020E8
:104F000040F66A17B94200D100BF1846C1F34214F7
:104F100001F01F06012707FA06F5012C01D10C301C
:104F200004E0022C01D1103000E014301AB10768FF
:104F30002F43076002E00768AF430760F0BD000041
:104F40002DE9FF4705460E460024A14600BFA046B6
:104F5000B08900B100BF2C8A24F44054F088044387
:104F60002C82AC8941F20C608443B08831890843BB
:104F7000718908430443AC81AC8A24F44074B0893D
:104F80000443AC826846FFF755F92048854202D0B9
:104F90001F48854202D1DDF80C9001E0DDF8089051
:104FA000A88900F4004040B109EBC90000EB0910EA
:104FB00031684900B0FBF1F707E009EBC90000EBED
:104FC000091031688900B0FBF1F76420B7FBF0F0FD
:104FD00004012009642101FB1078A88900F4004035
:104FE00040B1322000EBC800B0FBF1F000F0070048
:104FF000044308E0322000EB08106421B0FBF1F01C
:1050000000F00F0004432C81BDE8FF870010014031
:105010000014014001468888C0F30800704700BFB3
:10502000FEE700000FB4054B10B503A9044A02982F
:1050300000F018F810BC5DF814FB0000C95400081B
:105040002000002002E008C8121F08C1002AFAD17F
:1050500070477047002001E001C1121F002AFBD1F8
:10506000704700002DE9FF4F8DB00F460546002622
:1050700006E025280BD0DDE90F1290476D1C761C49
:1050800028780028F5D111B03046BDE8F08F002413
:10509000A246A1460122EC4900E0044315F8013F75
:1050A000203B02FA03F00842F7D128782A2810D0D2
:1050B0006FF02F022878A0F13001092914D80AEBEB
:1050C0008A0102EB410144F0020400EB010A6D1C6D
:1050D000F0E701CF5FEA000A03D544F40054CAF1B7
:1050E000000A44F002046D1C28782E2817D115F808
:1050F000010F44F004042A280ED06FF02F02287804
:10510000A0F1300109290AD809EB890102EB41011C
:1051100000EB01096D1CF2E757F8049B6D1C287821
:105120006C280FD006DC4C2817D068280DD06A28D0
:1051300014D104E0742810D07A280FD10DE044F483
:1051400000140AE044F4801401E044F44014697847
:10515000814202D104F580146D1C6D1C2A786E2AE0
:105160001FD00CDC632A31D004DC002A8BD0582AF3
:1051700011D1A3E0642A68D0692A0CD165E0732AB2
:105180002ED004DC6F2A73D0702A04D19BE0752ADC
:105190006FD0782A6ED01046DDE90F129047761C4A
:1051A00050E1C4F30250022806D0032809D0042895
:1051B00001CF09D0066045E101CFF117C0E90061D8
:1051C00040E101CF06803DE106703BE117F8040B9A
:1051D0008DF8000000208DF80100EB46012003E06F
:1051E00057F804BB4FF0FF3061074FF0000102D4C5
:1051F0000DE008F10101884649450FDA8045F8DBEA
:105200001BF808100029F4D108E008F101018846D4
:105210008142FADB1BF808100029F6D1DDE90F23E3
:10522000AAEB08008146214600F036F9304400EB35
:10523000080604E0DDE90F121BF8010B9047B8F1F6
:105240000108F7D221464846F7E00A21C4F3025389
:105250004FF0000B0891022B04D001CFC117032B94
:1052600009D00AE0FF1D27F00707F7E8020108E070
:1052700032E01FE020E000B2C117042B01D140B2A0
:10528000C117031E71F1000307DA4FF0000CD0EBD9
:105290000C006CEB01012D2302E0230504D52B2328
:1052A0008DF82430012303E0E30701D02023F7E742
:1052B000984658E00A2110E010210EE010204FF02F
:1052C000000B08900CE010214FF0000B44F0040498
:1052D0004FF00809089103E008214FF0000B0891F6
:1052E000C4F30253022B04D001CF0021032B06D0BC
:1052F00006E0FF1D27F00707F7E8020103E080B290
:10530000042B00D1C0B24FF0000823072BD5702A20
:1053100007D0DDF820C08CF0100C5CEA0B0C05D037
:105320000EE040238DF82430012308E050EA010309
:1053300006D030238DF824308DF82520022398469E
:10534000DDF820C08CF0080C5CEA0B0C0BD150EAA5
:10535000010301D1630706D530238DF824304FF0C7
:105360000108A9F10109582A04D038A20B9208AA11
:105370000A920BE03AA2F9E75B46089AFAF74EFF69
:105380000B9B9B5C0A9A521E0A92137050EA010210
:10539000F2D10A98ADEB000000F1200B600702D5B6
:1053A00024F4803401E04FF00109D94502DDA9EB76
:1053B0000B0000E0002000EB0B0141440890AAEB39
:1053C000010AE00306D4DDE90F232146504600F030
:1053D00063F806444FF0000908E009A911F8090034
:1053E000DDE90F12904709F10109761CC145F4DB94
:1053F000E0030CD5DDE90F232146504600F04CF8C0
:10540000064404E0DDE90F1230209047761C08992D
:10541000481E08900029F5DC08E00A980A990078EF
:10542000491C0A91DDE90F129047761CBBF100017F
:10543000ABF1010BF1DC21465046DDE90F2300F012
:1054400019F806446D1C1BE609280100303132337F
:1054500034353637383961626364656600000000B0
:10546000303132333435363738394142434445469A
:10547000000000002DE9F041044600251E461746B5
:10548000880404D405E039462020B0476D1C641E12
:10549000F9D52846BDE8F0812DE9F0410446002504
:1054A0001E469046C80301D5302700E02027880417
:1054B00004D505E041463846B0476D1C641EF9D559
:1054C0002846BDE8F0810000074A126802F08072A9
:1054D00042B100BF4FF060421268002AFAD04FF08C
:1054E0006043187070470000FCED00E030B58BB0F1
:1054F0000AA8FCF7F1FAFBF737FDFBF742FAFBF7D6
:1055000039FA04461F480068B4FBF0F52846FDF759
:10551000F9FBFCF7E7F90AA8032100220592CDE97F
:105520000621089005204FF400713322164BCDE977
:105530000132CDE9031004200023144A14A1009085
:105540001448FCF7D3FE0AA8032100220592CDE9F6
:105550000621089005204FF4007133220E4BCDE94F
:105560000132CDE90310032000230C4A08A100906A
:105570000B48FCF7BBFE0AA8FCF784FE00200BB02A
:1055800030BD0000685700082C150020B90800083D
:10559000000000006C1400206C0C0020E9080008DA
:1055A000AC0B00202DE9F04781460D4614464FF024
:1055B000000A2878207068786070A878A070E87871
:1055C000E0702879207168796071A879A071E87914
:1055D000E071287A2072687A6072A87AA072E87AFC
:1055E000E072287B2073687B6073207B617B00EB1B
:1055F0000126314617A0FFF715FDA87BA073E87BB5
:10560000E073287C2074687C60746EB112274FF0C0
:10561000000805E019F80800E0557F1C08F10108B2
:1056200006F112008742F5D3002704E0E05D504404
:1056300000F0FF0A7F1C06F112008742F6D304F83F
:1056400000A0E97C401C21542146401CFFF7E6FBEA
:10565000BDE8F087B7A2CBCDCAFDBEDDD3F2B3A4BF
:10566000B6C8CEAA2575CEBB0A00000070B50446A8
:105670000E46154697202149087060784870A17839
:105680001E488170E178C170217901711C48006861
:1056900040791A4948711A48006881791748817120
:1056A00017480068C1791548C17115480068017A2A
:1056B0001248017212480068417A1048417210483D
:1056C0000068817A0D48817297200C49C8720D7369
:1056D000290A0A484173A07B084988738020C8734F
:1056E000207C0874617C05484174E9200349C87432
:1056F000044A3046FFF756FF70BD00000207002045
:10570000180000200E050020782900200600000067
:105710004000000000010000000000000000000048
:105720000000000000000000000000000000000079
:1057300000000000782A00206400000090010000B2
:105740006400000040060000082C0020000000005B
:105750000000000000000000000000000000000049
:105760000000000040000000E8030000010000000D
:10577000483200200A000000640000009001000090
:105780000B0000000A000000D83300200A000000CF
:105790006400000090010000F00B00000101010016
:1057A00078563412000100000000000000000000E4
:1057B00000000000000000000000000000000000E9
:1057C00000000000000000000000000000000000D9
:1057D000010101002800040000000000000000009A
:1057E00000000000000000000000000000000000B9
:1057F0000000000000000000000000000100200088
:10580000010010000C00100000000000000000006B
:105810000000000000000000000000000000000088
:105820000000000000000000000000000000000078
:105830000000000000000000010101003000010034
:1058400020000C00200040000800040000000000C0
:105850000000000000000000000000000000000048
:105860000000000000000000000000000000000038
:105870000000000000000000000000000101010124
:1058800030000000000000000000000000000000E8
:105890000000000000000000000000000000000008
:1058A00000000000000000000000000001010101F4
:1058B00028000C00000300000400010101010101A7
:1058C00001000101C000080001010000000000000B
:1058D00000000000000000000000000000000000C8
:1058E00000000000000000000000000000000000B8
:1058F0000000000000000000000000000101300076
:10590000C47600001B06000053312D2D2D2D2D5483
:105910005950452D2D2D2D2D2D2D2D2D6164647269
:105920006573732D2D2D2D2D2D53322D2D6C656E00
:105930002D2D5345512D432D2D2D466E2D2D435389
:105940002D454E442D2D446174612E2E2E0A0000EB
:1059500070590008000000201C010000445000089D
:105960008C5A00081C010020CC490000545000084B
:1059700000000000010203040102030406070809F5
:1059800000000000000000001607002000000000DA
:105990000000000000000000FE0A002000000000DF
:1059A000000000002C000020000000003800002053
:1059B000000000004000002000000000480000201F
:1059C000890B002000000000000000000000000023
:1059D00000000000000000000000000000000000C7
:1059E00000000000000000000000000000000000B7
:1059F00000000000000000000000000000000000A7
:105A00000000000000000000000000000000000096
:105A10000000000000000000000000000000000086
:105A20000000000000000000000000000000000076
:105A30000000000000000000000000000000000066
:105A40000000000000000000000000000000000056
:105A50000000000000000000000000000000000046
:105A60000000000000000000000000000000000036
:105A70000000000000000000000000000000000026
:0C5A80000000000000000000000000001A
:040000050800018965
:00000001FF
