:020000040800F2
:10000000C84D0020C1010008E50700085706000898
:10001000C106000817050008E13A000800000000CA
:10002000000000000000000000000000553900083A
:10003000C50500080000000015030008611D000848
:10004000FB010008FB010008FB010008FB010008A0
:10005000FB010008FB010008FB010008FB01000890
:10006000FB010008FB010008FB010008FB01000880
:10007000FB010008FB010008FB010008FB01000870
:10008000FB010008FB010008FB010008FB01000860
:10009000FB010008FB010008FB010008FB01000850
:1000A000FB010008FB010008FB010008FB01000840
:1000B000FB010008FB010008FB010008FB01000830
:1000C000FB010008FB010008FB010008FB01000820
:1000D000FB010008FB010008FB010008FB01000810
:1000E000FB010008FB010008FB010008FB01000800
:1000F000FB010008FB010008FB010008FB010008F0
:10010000FB010008FB010008FB010008FB010008DF
:10011000FB010008FB010008FB010008FB010008CF
:10012000FB010008FB010008FB010008FB010008BF
:10013000FB010008FB010008FB010008FB010008AF
:10014000FB010008FB010008FB010008FB0100089F
:10015000FB010008FB010008FB010008FB0100088F
:10016000FB010008FB010008FB010008FB0100087F
:10017000FB010008FB010008FB010008FB0100086F
:10018000FB010008FB010008FB010008FB0100085F
:10019000FB010008FB010008FB010008FB0100084F
:1001A000FB010008FB010008FB010008DFF80CD090
:1001B00000F046F800480047053B0008C84D002005
:1001C000DFF83800016841F470010160BFF34F8F20
:1001D000DFF82C00016821F040410160BFF36F8F10
:1001E0000848804708480047FEE7FEE7FEE7FEE7CD
:1001F000FEE7FEE7FEE7FEE7FEE7FEE788ED00E04C
:1002000034EF00E0793A0008AD01000872B670479B
:1002100062B67047EFF3108072B6704780F31088B3
:10022000704730BF704720BF7047B0FA80F070470A
:1002300090FAA0F0B0FA80F0704790FAA0F0704702
:10024000064C074D06E0E06840F0010394E8070023
:1002500098471034AC42F6D3FFF7ACFF643D00087A
:10026000843D0008EFF3098141B1F1EE101A40F826
:10027000041D20ED200A3B490A6810607047B0EC6D
:10028000200A02C8E1EE101A37490A681060704768
:1002900072B64EF62250CEF2000040F2FF01C0F2DC
:1002A0000001017040F2E400C2F20000016881F335
:1002B000088840F25A00C2F2000040F25B01C2F22C
:1002C00000010A78027040F2DC05C2F2000540F23B
:1002D000E001C2F200010A682A60106880F3098810
:1002E000EFF3148040F0020080F31488BFF36F8FA7
:1002F000BDE8F00F0FBCBDE8005006BC62B6084771
:100300001A484FF080510160704718484FF08051F3
:100310000160704772B6EFF3098020E9F00F40F2F8
:10032000DC05C2F200052E683060744601F03EFC28
:1003300040F25A00C2F2000040F25B01C2F200013A
:100340000A78027040F2E001C2F200010A682A60F5
:1003500044F0F40E1068B0E8F00F80F3098862B63C
:1003600070470000DC000020E000002004ED00E009
:1003700008B50BE00648006880F480600449086016
:100380006A4600214FF47A7001F06CFCF2E700003D
:10039000141C024008B50BE00648006880F40060B9
:1003A000044908606A46002141F2883001F05AFC95
:1003B000F2E70000141C024008B50BE00648006894
:1003C00080F48050044908606A46002142F21070AF
:1003D00001F048FCF2E70000141C024070B58AB03E
:1003E000064600F09AF800F092F800F089F804460A
:1003F0002C480068B4FBF0F5284601F0CDFC00F075
:100400006BF909A800F09EFE09A8032100220592BD
:10041000CDE90621089005204FF400713322224BCC
:10042000CDE90132CDE90310032000231F4A20A1AA
:100430000090234800F008FF09A80321002205923C
:10044000CDE90621089005204FF4007133221D4BA1
:10045000CDE90132CDE90310032000231A4A1BA184
:1004600000901E4800F0F0FE09A80321002205922A
:10047000CDE90621089005204FF400713322184B76
:10048000CDE90132CDE9031003200023154A16A15E
:100490000090194800F0D8FE09A9184800F0A8FFFC
:1004A0000AB070BDC43B0008E805002071030008D5
:1004B000417070205461736B204C65643100000002
:1004C000A8010020E80D002095030008417070206D
:1004D0005461736B204C6564320000006802002098
:1004E000E8150020B9030008417070205461736B57
:1004F000204C65643300000028030020E800002041
:100500001FB5684603F0B2F9019804B010BD10B5EC
:1005100000F0A4F810BD00BFFEE710B500F022F80F
:1005200000F01AF810BD000010B5002400BF00BF95
:10053000FFF770FE044600BF00BF1021054800F021
:10054000C1F800BF00BF2046FFF768FE00BF00BF34
:1005500010BD0000E81D002010B5FFF7E5FF10BD3D
:1005600000BFFEE710B500200249086000F00AF85D
:1005700010BD000010000020014908607047000015
:100580001000002010B5FFF7BBFF044608480068C4
:1005900040F080700649086000200649486008461F
:1005A000006840F0010008602046FFF7E5FF10BD3D
:1005B000FCED00E0001000E00149486870470000D1
:1005C000001000E07047F0B50A4600210023002427
:1005D00000BF3DE0012505FA01F3156805EA0304B3
:1005E0009C4234D105684F000326BE40B5430560E8
:1005F00015794E00B5400668354305601579012D23
:1006000002D01579022D16D185684F000326BE4011
:10061000B543856055794E00B540866835438560A1
:10062000456801268E40B5434560456896798E4001
:10063000B6B235434560C5684F000326BE40B5439A
:10064000C560D5794E00B540C6683543C560491CC4
:100650001029BFD3F0BD00BFFEE700001CB501218B
:10066000802003F0F3F84FF48060009001208DF8B3
:10067000040000208DF8060001208DF807000020FE
:100680008DF8050069460D48FFF79DFF4FF40060A7
:10069000009069460948FFF796FF4FF4805000909C
:1006A00069460648FFF78FFF4FF480600349183111
:1006B000088040000880400008801CBD001C0240EB
:1006C00000BFFEE730B505460C462246002128460D
:1006D00000F05EF830BD00003EB500200C49086017
:1006E0000C4C02A801214FF440632246CDE90010D2
:1006F00009490AA000F016F8BDF8080042F210718E
:10070000884203D000BFFFF72BFF00BF3EBD0000B3
:1007100014000020F81D0020F829002048656170B1
:10072000000000002DE9F84F05460E4617461C460E
:10073000DDE90A894FF0000A00BF00BFFFF76AFD3C
:10074000824600BF00BF43463A46314628460094E1
:1007500000F00EF800BF00BF5046FFF75FFD00BF7E
:1007600000BF42F21070A9F80000BDE8F88F000049
:1007700030B5039C0A60651E15444D608A60034DC8
:100780002D68CD600B61014D296030BD1400002043
:100790002DE9F04105460B4694460027002402E06F
:1007A0003F021F43641C042CFAD3604605F0030685
:1007B000294646B1344603E001F8013B401E641C63
:1007C00008B1042CF8D30A4601E080C2001F0428B7
:1007D000FBD2114602E001F8013B401E0028FAD18D
:1007E000BDE8F0817047704710B50348006810B14C
:1007F00001480068804710BD2C00002070B50446F9
:1008000000F0AEF8002041490870414908704149A4
:1008100008704149086041490860414908704149F0
:1008200008704149087041490860414908604149E0
:1008300008604148006858B14048056845B13E48E5
:10084000066803E0761E002028602D1D002EF9D1D9
:1008500000203B4908603B4908603B4908603B4930
:1008600008603B4908603B4908603B4908603B49D8
:10087000087001F081FE01F0BBFE204601F078FB1C
:10088000208800B170BD204601F0D8FB208800B15F
:10089000F8E7204601F0DEFB208800B1F2E72046B1
:1008A00001F0B0FC208800B1ECE7204601F094FE96
:1008B000208800B1E6E7204601F05AFF208800B109
:1008C000E0E7204602F000FA208800B1DAE720468F
:1008D00001F07CFB208800B1D4E7204602F034FE12
:1008E000208800B1CEE7204602F0C2F8208800B18F
:1008F000C8E7204602F08CFE208800B1C2E701F074
:1009000063FAFFF770FF00BFBCE700004000002063
:100910004100002074000020DC000020E0000020E6
:100920005A0000205B0000205C00002068000020CE
:100930006C00002070000020943B0008903B0008F1
:100940002000002024000020280000202C0000208F
:10095000300000203400002038000020A2000020D9
:10096000064800680649096800EB810005490860EF
:100970000846006820F0070008607047903B0008B8
:10098000943B0008E400002010B500242D480078B6
:10099000012800D010BD00BFFFF73CFC044600BF9B
:1009A0002948007828B900BF2046FFF737FC00BF70
:1009B000F0E725480078401E234908700846007873
:1009C000002805DD00BF2046FFF728FC00BFE1E757
:1009D0001E480078002805DD00BF2046FFF71EFCFA
:1009E00000BFD7E701F0B4FD194908700846007848
:1009F00000EB4000174951F82000174908600846ED
:100A0000006816490968884205D100BF2046FFF7F3
:100A100005FC00BFBEE710480068D0F88C00401C01
:100A20000D490968C1F88C000D480068401C0C494C
:100A30000860FFF76AFC00BF2046FFF7EFFB00BF2E
:100A400000BFA7E741000020400000207400002004
:100A50005B00002058380020E0000020DC0000206F
:100A6000980000202DE9F04104460E461546002767
:100A700024B945F6C3502880BDE8F08100BF00BF0F
:100A8000FFF7C8FB074600BF00BF10482060666044
:100A900000202062606284F82800E06204F108000F
:100AA00001F061FC204601F03DFB09480088401C34
:100AB0000749088000BF00BF3846FFF7AFFB00BF03
:100AC00000BF0020288000BFD6E700004D555458D5
:100AD000580000202DE9F04788B0054689461746A2
:100AE0001C46109E4FF0000A2DB945F6C3503080C9
:100AF00008B0BDE8F0871FB1B7F5004F02D100E0A4
:100B000000BF03E045F625603080F1E700BF624991
:100B10002868884203D045F6C4503080E8E70CB11D
:100B20000020206000BF00BFFFF774FB824600BFBB
:100B300000BF95F82800B8B95848006868620120DD
:100B400085F828000CB1E86A2060294653480068FF
:100B500001F000FB00BF00BF5046FFF75FFB00BF86
:100B600000BF00203080C3E74C49686A09688842AA
:100B700012D195F82800401C85F828000CB1E86ACD
:100B8000206000BF00BF5046FFF748FB00BF00BF1A
:100B900045F282703080ABE707F4004050B100BFEF
:100BA00000BF5046FFF73AFB00BF00BF46F2B0104F
:100BB00030809DE73A48007800280ADD00BF00BF7A
:100BC0005046FFF72BFB00BF00BF46F66350308056
:100BD0008EE7D5F8248098F837003049096891F8F5
:100BE0003710884206DD2D48006890F837104046DF
:100BF00001F0BAFF4B4604222946684601F00EFB7D
:100C000000BF00BF5046FFF709FB00BF00BF00F068
:100C10000FF900BF00BFFFF7FDFA824600BF00BF1B
:100C20001E48006890F8350030B101280CD0022829
:100C30001AD0032821D110E01CB118480068806C3C
:100C40002060002030801CE01CB114480068806CDB
:100C5000206046F2A910308013E00CB10020206023
:100C600047F2D92030800CE01CB10C480068806C41
:100C7000206045F6C250308003E046F62E6030809A
:100C800000BF00BF00BF00BF5046FFF7C7FA00BF5C
:100C900000BF00BF2CE700004D555458DC00002079
:100CA000740000202DE9F84F0446894615464FF0A0
:100CB000000B24B945F6C3502880BDE8F88FB9F180
:100CC000000F03D0B9F5004F02D100E000BF03E0F0
:100CD00045F625602880F0E700BF52492068884229
:100CE00003D045F6C4502880E7E700BF00BFFFF7F8
:100CF00091FA834600BF00BF4B49606A0968884289
:100D00000AD000BF00BF5846FFF788FA00BF00BFF7
:100D100045F281702880D0E7FFF74EFC80462834EA
:100D2000C4F804802078401E207014F82809002898
:100D30000ADD00BF00BF5846FFF770FA00BF00BFD2
:100D400045F283702880B8E721463748006801F0F3
:100D50004BFA04F1080ABAF8080068B9002060628A
:100D600084F8280000BF00BF5846FFF757FA00BFBD
:100D700000BF00202880A0E72B48006890F83700CB
:100D80002949096891F83810884228D02648006817
:100D900001F014FA06462448006890F83810B14271
:100DA00004DA2148006890F8380000E03046064632
:100DB0001D48006890F83700B04210DA1A48006801
:100DC00001F07CFC1848006880F83760304601F07C
:100DD000DFFB1548006801F053FC14480670DAF890
:100DE000000087686762012084F8280021463846A1
:100DF00001F0B0F900231A4639462046CDF80080AC
:100E000001F024FB00BF00BF5846FFF707FA00BF00
:100E100000BF09F4004008B900F00AF8002028805B
:100E200000BF4AE74D555458DC0000205A0000200E
:100E300010B5002420480078002800DD10BD1F48B0
:100E40000078002800DDF9E700BFFFF7E3F904466A
:100E500000BF01F07DFB1A4908700846007800EBDE
:100E60004000184951F820001749086008460068FA
:100E700016490968884205D100BF2046FFF7CEF920
:100E800000BFDBE710480068D0F88C00401C0E491A
:100E90000968C1F88C000E480068401C0C490860C5
:100EA000FFF72EFA00BF2046FFF7B8F900BFBFF3E7
:100EB0006F8F00BFC2E700004000002074000020D8
:100EC0005B00002058380020E0000020DC000020FB
:100ED0009800002070B504460025144800780128C9
:100EE00003D045F68960208070BD11480078FA284B
:100EF00003DB45F209202080F6E700BF00BFFFF7C3
:100F000089F9054600BF00BF09480078401C084920
:100F1000087001F001FC00BF00BF2846FFF77EF912
:100F200000BF00BF0020208000BFDDE7410000209F
:100F30007400002070B5044600251C480078012884
:100F400003D045F68960208070BD1948007818B933
:100F500046F664502080F7E700BF00BFFFF75AF95C
:100F6000054600BF00BF12480078401E10490870B7
:100F70000846007800280ADD00BF00BF2846FFF7BA
:100F80004DF900BF00BF46F663502080DCE701F05A
:100F9000D1FB00BF00BF2846FFF740F900BF00BFEC
:100FA000FFF746FF0020208000BFCDE74100002072
:100FB0007400002010B5044612480078E8B901F02A
:100FC000C7FA1149087008460078104908700E48A1
:100FD000007800EB40000E4951F820000D490860F0
:100FE000084600680C490860012006490870FFF7B0
:100FF0004FF943F69920208002E045F68A60208070
:1010000010BD0000410000205B0000205A000020BD
:1010100058380020E0000020DC0000202DE9F041DD
:1010200007464FF0000800BF00BFFFF7F3F8804607
:1010300000BF00BF00203B4908803B4908603B4996
:1010400008603B4908603B4908603B49088100BF94
:1010500000BF4046FFF7E2F800BF00BF00BF00BF7F
:10106000FFF7D8F8804600BF00BF3448046800BFCF
:1010700000BF4046FFF7D2F800BF00BF21E000BF2D
:1010800000BFFFF7C7F8804600BF00BF00207434E0
:10109000E06320602063A061A082E0826062A062C1
:1010A000FFF78AFA2062743C04F160060020B081E8
:1010B000D4F8B84000BF00BF4046FFF7AFF800BF0C
:1010C00000BF002CDBD100BF00BFFFF7A3F88046B4
:1010D00000BF00BF1A48056800BF00BF4046FFF7C9
:1010E0009DF800BF00BF12E000BF00BFFFF792F8FD
:1010F000804600BF00BF05F120060020B081AD6929
:1011000000BF00BF4046FFF789F800BF00BF002DB9
:10111000EAD102F00FF902F021FB00203880BDE88F
:10112000F08100008200002094000020A800002030
:10113000CC0000206C0000204C3800209C000020D7
:1011400060000020F8B5044600266946324800F0E9
:101150001BFDBDF8000018B1BDF800002080F8BDEF
:101160006A460021022000F07DFDBDF8000018B1A4
:10117000BDF800002080F2E700BF00BFFFF74AF88B
:10118000064600BF00BF00202449086000BF00BF22
:101190003046FFF743F800BF00BF00252048006835
:1011A00020490968884205D91D4800681D49096819
:1011B000B0FBF1F525B91A4800680A21B0FBF1F53A
:1011C0006A460021284600F04DFD6946124800F0AD
:1011D000DFF9BDF8000018B1BDF800002080BEE7BF
:1011E00000BF00BFFFF716F8064600BF00BF002093
:1011F0000D490860094800680C49086001200C4945
:10120000087000BF00BF3046FFF708F800BF00BFFE
:101210000020208000BFA2E7083D002084000020BD
:10122000C43B0008AC3B000894000020880000206C
:101230009000002010B50348006810B10148006814
:10124000804710BD300000202DE9FF4F87B00446D5
:101250009046DDE91BA5DDE91496179F0020039059
:101260002CB947F2AD1028800BB0BDE8F08FB8F173
:10127000000F03D147F24F102880F5E71EB946F65C
:101280002F602880F0E750480068874203D246F676
:1012900030602880E8E71698B84203D346F63160FC
:1012A0002880E1E7B9F1400F03D346F2732028808C
:1012B000DAE7B9F13F0F06D14448844203D046F241
:1012C00073202880D0E7204601F00EFD0020288002
:1012D0000AF0010090B10AF0020078B105960020F2
:1012E000069008E00021059801600598001D059012
:1012F0000698401C06900698B842F3D3169806EB61
:1013000080000490CDE9007A32464046049B0A9959
:1013100000F0D8FA0590C4F828800A98E06208988E
:10132000206284F8379084F83890059820600498FB
:10133000A0601A98606066622764A4F844A04FF029
:10134000000B08E0002104F1780040F82B100BF1AD
:10135000010000F0FF0BBBF1000FF3D004F16000BF
:10136000189900F0D7FE204600F036F800BF00BF05
:10137000FEF750FF039000BF00BF94F8370001F064
:1013800007F9204601F07CF9204601F063FC104883
:101390000088401C0E4908800E480078012807D0BC
:1013A00000BF00BF0398FEF739FF00BF00BF5BE737
:1013B00000BF00BF0398FEF731FF00BF00BFFFF77B
:1013C00037FD00BF50E70000C03B00088C3700200D
:1013D000A00000204100002010B50446034800682A
:1013E00018B1204601490968884710BD2000002037
:1013F0002DE9F04104460E464FF000085B48844258
:1014000004D147F24C103080BDE8F0817CB900BFB8
:1014100000BFFEF7FFFE804600BF00BF54480468CF
:1014200000BF00BF4046FEF7F9FE00BF00BF00BF8F
:1014300000BFFEF7EFFE804600BF00BF94F8360005
:10144000082860D2DFE800F004090E10080A0F1126
:10145000204601F033F961E060E000BF204601F072
:101460003DFF5BE000BF00BF00BF94F834000828D8
:101470003BD2DFE800F0040705080E090A0600BFAA
:1014800000BF33E000BF00BF00BF204600F0A3FF55
:101490002CE0206BC068456A15F8377F204600F0C5
:1014A0009AFF28786978373D884212D095F837003E
:1014B00094F8371088420CD1284600F07FFE07468A
:1014C00095F83800B84202DA95F8380000E038465E
:1014D0000746002084F8340095F83700B84203D05E
:1014E0003946284601F040FB00E000BF00BF94F8F9
:1014F0003600032803D094F83600072802D120468E
:1015000001F0ECFE0AE000BF00BF4046FEF786FE99
:1015100000BF00BF46F62D60308075E700BFE06B6E
:1015200010B1204600F01AFE04F1600000F0D0FD7A
:10153000204600F021F8204601F0A4FB0D48008869
:10154000401E0C490880204601F0CEFBFF2084F8A5
:10155000360000BF00BF4046FEF760FE00BF00BF80
:1015600000203080FFF764FC00BF4DE78C3700207F
:10157000DC000020A000002010B5044603480068ED
:1015800018B1204601490968884710BD2400002091
:1015900070B504460D46002600BF00BFFEF73AFEB8
:1015A000064600BF00BF1CB10D48006884420AD146
:1015B00000BF00BF3046FEF731FE00BF00BF47F25C
:1015C0005710288070BD00BF00BF3046FEF726FED2
:1015D00000BF00BF2946204601F0E4FB00BFF1E751
:1015E000DC00002010B504460348006818B120460E
:1015F00001490968884710BD280000202DE9F047FF
:1016000080460E4614461D464FF000091EB1B6F541
:10161000004F02D100E000BF05E045F625602880BC
:101620000020BDE8F08700BF0CB10020206000BFA3
:1016300000BFFEF7EFFD814600BF00BF5F480068B6
:10164000C06CA8B35D480068C06C401E5B49096867
:10165000C8645A480068C76C1CB158480068806C60
:101660002060FEF7A9FF55490968896C401A534963
:101670000968C1F8A00051480068D0F8A4004F499B
:101680000968D1F8A010884207D24C480068D0F809
:10169000A0004A490968C1F8A40000BF00BF48463D
:1016A000FEF7BCFD00BF00BF002028803846B8E729
:1016B000FFE706F4004058B100BF00BF4846FEF700
:1016C000ADFD00BF00BF46F2B01028800020A8E7A3
:1016D0003B48007800280BDD00BF00BF4846FEF7FE
:1016E0009DFD00BF00BF46F663502880002098E7AC
:1016F000434607220021084600F090FD00BF00BFCE
:101700004846FEF78BFD00BF00BFFFF791FB00BF0F
:1017100000BFFEF77FFD814600BF00BF274800687D
:1017200090F8350020B1012826D0032834D12CE0D0
:10173000FCB122480068806C2060FEF73DFF1F4925
:101740000968896C401A1D490968C1F8A0001B4846
:101750000068D0F8A40019490968D1F8A01088429F
:1017600007D216480068D0F8A00014490968C1F8EB
:10177000A4000020288013E01CB110480068806C91
:10178000206046F2A91028800AE00CB100202060F9
:1017900047F2D920288003E046F62E60288000BF5B
:1017A00000BF06480068C76C00BF00BF4846FEF790
:1017B00035FD00BF00BF384633E70000DC000020E5
:1017C000740000202DE9F04106460D4614461DB177
:1017D000B5F5004F02D100E000BF05E045F62560F9
:1017E00020800020BDE8F08100BFFEF7E5FE8046C6
:1017F000234642462946304601F060FB07463846FC
:10180000F0E700002DE9F04704460E4617461D4656
:101810004FF0000A26B946F2D5202880BDE8F087AF
:101820001FB946F2D5202880F8E700BF00BFFEF7B9
:10183000F1FC824600BF00BF0CB921480468206853
:1018400068B900BF00BF5046FEF7E8FC00BF00BF0C
:1018500000203060386047F252102880DEE794F8AC
:10186000440000F0010068B900BF00BF5046FEF719
:10187000D5FC00BF00BF00203060386047F2541034
:101880002880CBE700BF00BF5046FEF7C7FC00BF73
:1018900000BF4FF00008D4F8249003E009F10409D8
:1018A00008F10108D9F800000028F7D0C6F8008038
:1018B000206CA0EB080038600020288000BFADE756
:1018C000DC000020F0B50446DDE9055602EB85009A
:1018D00020F007004FF0807C071F3846C7F800C093
:1018E000071F38463C60DFF834C2071F3846C7F888
:1018F00000C04FF0123C071F3846C7F800C04FF039
:10190000033C071F3846C7F800C04FF0023C071FD2
:101910003846C7F800C0071F38463B60071F3846E7
:1019200039604FF0113C071F3846C7F800C04FF030
:10193000103C071F3846C7F800C04FF0093C071F8E
:101940003846C7F800C04FF0083C071F3846C7F8B4
:1019500000C04FF0073C071F3846C7F800C04FF0E3
:10196000063C071F3846C7F800C04FF0053C071F6C
:101970003846C7F800C04FF0043C071F3846C7F888
:1019800000C006F00407002F7ED04FF0007C071F38
:101990003846C7F800C0DFF888C1071F3846C7F8C7
:1019A00000C0DFF880C1071F3846C7F800C0DFF865
:1019B00078C1071F3846C7F800C0DFF870C1071F9D
:1019C0003846C7F800C0DFF868C1071F3846C7F8B7
:1019D00000C0DFF860C1071F3846C7F800C0DFF855
:1019E00058C1071F3846C7F800C0DFF850C1071FAD
:1019F0003846C7F800C0DFF848C1071F3846C7F8A7
:101A000000C0DFF840C1071F3846C7F800C0DFF844
:101A100038C1071F3846C7F800C0DFF830C1071FBC
:101A20003846C7F800C0DFF828C1071F3846C7F896
:101A300000C0DFF820C1071F3846C7F800C0DFF834
:101A400018C1071F3846C7F800C04FF0834C071F66
:101A50003846C7F800C0DFF804C1071F3846C7F88A
:101A600000C0DFF8FCC0071F3846C7F800C0DFF829
:101A7000F4C0071F3846C7F800C0DFF8ECC0071FE6
:101A80003846C7F800C000E047E0DFF8E0C0071FB5
:101A90003846C7F800C0DFF8D8C0071F3846C7F877
:101AA00000C0DFF8D0C0071F3846C7F800C04FF0AD
:101AB000824C071F3846C7F800C0DFF8BCC0071FBC
:101AC0003846C7F800C0DFF8B4C0071F3846C7F86B
:101AD00000C0DFF8ACC0071F3846C7F800C04FF0A1
:101AE000814C071F3846C7F800C0DFF898C0071FB1
:101AF0003846C7F800C04FF0804C071F3846C7F87B
:101B000000C04FF07E5C071F3846C7F800C04FF09A
:101B1000000C071F3846C7F800C0F0BDA52E00080E
:101B20000000F8410000F0410000E8410000E04101
:101B30000000D8410000D0410000C8410000C04171
:101B40000000B8410000B0410000A8410000A041E1
:101B50000000984100009041000088410000704161
:101B60000000604100005041000040410000304151
:101B700000002041000010410000E0400000C04093
:101B80000000A0400000404070B505460C460648E5
:101B9000854203D147F25B10208070BD2146284664
:101BA00001F06EFA00BFF8E78C37002010B5294825
:101BB000006890F8440000F0040020B1254909684D
:101BC0000868FEF74FFB2448006890F8440000F0D6
:101BD000040020B1204909680868FEF750FB1F483F
:101BE000006810B11D4800688047FEF7E5FC044618
:101BF0001848006818490968884215D015480068D7
:101C0000D0F89400201A13490968C1F890001148CF
:101C10000068D0F898000F490968D1F8901008447E
:101C20000C490968C1F898000B480068C0F8944056
:101C300008480068D0F8B00009490968884205D210
:101C40000748006803490968C1F8B000002004494A
:101C5000086010BDDC000020E000002034000020FF
:101C6000700000202DE9F04105460E46144600277D
:101C700023480078002804DD46F663502080BDE844
:101C8000F08136B1022E05D0042E0AD0082E09D1DB
:101C900001E000BF00BF1DB947F27E202080EEE7C3
:101CA00004E003E045F625602080E8E700BF00BFC0
:101CB00000BFFEF7AFFA074600BF00BF234632461B
:101CC00029461048006801F0ABFA208838B100BFFF
:101CD00000BF3846FEF7A2FA00BF00BFCFE70948B1
:101CE000006800F0EBFC00BF00BF3846FEF796FA34
:101CF00000BF00BFFFF79CF80020208000BFBEE7B8
:101D000074000020DC00002008B500F01FF86A46CF
:101D100000210A48FFF756FD09480068401E08499F
:101D200008600846006838B90648006808606A46D6
:101D300000210548FFF746FD08BD0000183C0020C3
:101D4000D8000020D4000020083D002010B5034832
:101D5000006810B101480068804710BD38000020BD
:101D600010B5002400BF00BFFEF754FA044600BFC0
:101D700000BF08480078401C0649087000BF00BF3B
:101D80002046FEF74BFA00BF00BFFFF7BDFFFEF78E
:101D9000FBFD10BD4000002001464A1E4FF0E0232D
:101DA0005A61084A106820F07F4000BF10601A4650
:101DB000126942F005021A611A46126942F00202E3
:101DC0001A61704720ED00E0244A2549254A264A39
:101DD0002649274A2748284A284A294A294A2A4878
:101DE0002A482B4A2B482C4A2C482D4A2D482E484D
:101DF0002E482F482F4A304A304A3148314A324A19
:101E00003248334833483448344835483548364AF0
:101E1000364A374A374A384838483948394A3A4AB8
:101E20003A4A3B483B483C483C493D483D4A3E4A8B
:101E30003E4A3F4A3F4A404A404A4148414A424A54
:101E400042484348434A444A4448454A454A46482A
:101E5000464800BF00BF00BF70470000F83B0008C5
:101E6000603D0008F93B0008FA3B0008FC3B000815
:101E7000003C0008043C0008013C00082C3C000821
:101E80002D3C00082E3C0008303C0008323C000885
:101E9000363C0008383C0008583C00085A3C000812
:101EA0005C3C00085E3C0008603C0008623C0008A6
:101EB000643C0008943C0008953C0008963C0008EF
:101EC000983C00089A3C00089B3C00089C3C000899
:101ED0009E3C0008A03C0008A23C0008A43C00086E
:101EE000A63C0008A83C0008D83C0008D93C0008E3
:101EF000DA3C0008DB3C0008DC3C0008DE3C000863
:101F0000E03C0008083D0008093D00080A3D0008C3
:101F10000B3D00080C3D00080E3D0008103D000878
:101F2000143D0008153D0008163D0008173D000847
:101F3000183D0008193D00081A3D00081B3D000827
:101F40001C3D00081E3D00081F3D0008203D000804
:101F5000223D0008243D0008253D0008283D0008DA
:101F6000583D0008593D00085A3D00085C3D0008F6
:101F70000021034A1160034A11800180704700006C
:101F80004400002048000020002419E000BF00BFEA
:101F9000FEF740F9044600BF00BF0A480068401C35
:101FA0000849086008480068401C0749086000BFED
:101FB00000BF2046FEF732F900BF00BFFEF714FC59
:101FC000E4E700003C0000208400002010B58AB047
:101FD000044600200E4908600B2000210591CDE940
:101FE0000704069108460B4909680B4A12680B4B17
:101FF0001B68CDE90132CDE903103F200023084AD8
:1020000008A100900C48FFF71FF90AB010BD0000AE
:102010003C0000206C3B0008683B0008643B000863
:10202000891F000875432F4F532D494949204964A2
:102030006C65205461736B008C3700200021034ACB
:102040001160034A11800180704700004C0000209D
:102050005000002070B501461A4D2D681DB945F29B
:102060001E750D8070BD184D2D881DB945F21D756A
:102070000D80F7E7134D28682A681032124D2D881D
:102080006D1EACB2002308E00260002545600581AA
:10209000C560103010325D1CABB2A342F4DB0025EA
:1020A000056045600581C560064D2D68074E3560A9
:1020B000054D2D88B5800025F58035810D8000BF48
:1020C000D0E70000A43B00089C3B00084C380020EF
:1020D00010B5014648894B89002B17DD0A680C4B67
:1020E0001B6813600A4C4B6823602346DB884C89CD
:1020F0001B1B074CE38023469B884C892344044CDC
:10210000A38000234B818B810B604B6010BD0000CE
:102110004C380020018100224281828102604260AD
:102120007047000009A1C1610021416108490968A7
:1021300011B90021816105E00549096881610449FF
:1021400009684861024908607047000020000000EB
:1021500054000020C26B0A62C16370472DE9F84346
:102160000546EC6B26E0D4F82090FEF725FA0646EB
:10217000E6622146284600F037F804F10808B8F86E
:10218000080020B9002084F82800606211E0D8F827
:10219000000087686562012084F8280021463846DF
:1021A000FFF7D8FF00231A4639462046009600F074
:1021B0004DF94C46002CD6D1BDE8F88330B5044625
:1021C0003F2004F13C010BE00D68AB682BB19D682A
:1021D00095F83720824200DA10460D6805F120019B
:1021E0000D68002DF0D130BD024602F13C0002E046
:1021F000036803F1200003688B42F9D103681B6A6E
:10220000036070470021034A1160034A1180018076
:102210007047000054000020580000202DE9F041D4
:1022200005460C4616461F461548006880F834607F
:1022300000201349096881F83500394610480068C4
:1022400000F07CFC6CB104F10808EC600122294626
:102250000B48006800F016F82946404600F088F860
:1022600007E0002006490968A1F84600044909680A
:10227000086303480168204600F018F8BDE8F081C3
:10228000DC00002010B5A0F84620016300230AE01E
:1022900000244C600C600C614C610C83CC61886044
:1022A00020315C1CA3B29342F2DB10BD30B548B1C3
:1022B0004568C1F8BC5000F10804226893681D6AA3
:1022C000C56113E091F83450022D02D0072D08D1DA
:1022D00003E007A5C1F8BC5007E007A5C1F8BC5052
:1022E00003E008A5C1F8BC5000BF00BF30BD00002E
:1022F0005461736B205100005461736B2053656D02
:10230000000000002000000030B507A5C1F8BC5057
:1023100000F1080422681AB193681D6AC56101E0E2
:1023200001A5C56130BD0000200000002DE9F0418D
:102330000446256BB4F8467011E0D5F80C8008F11E
:1023400008063089012807D92946304600F05DF893
:102350002946304600F00CF82035781E87B2002F51
:10236000EBD1BDE8F081002101604160018170473F
:10237000F0B58E6896F8375007893FB90127078175
:1023800000274F600F600160416023E007897F1CD8
:102390000781026806E0946894F83770AF4200DD68
:1023A00002E05268002AF6D100BF32B900274F6020
:1023B00043680B60596041600CE017682FB91160E9
:1023C00000270F604A60016004E013680B604A60F8
:1023D00059601160F0BD2DE9F0410446256BB4F859
:1023E00046600AE0D5F80C8008F10807294638460F
:1023F00000F00BF82035701E86B2002EF2DC0020B3
:10240000A4F846002063BDE8F08110B50489012CD2
:1024100003D100240460446011E00C6824B94A68C8
:102420000024146002600AE04C6824B90B680024A0
:102430005C60436003E00B684A685A60136004897B
:10244000641E048100244C600C6010BD2DE9F8432B
:1024500006460C4617469846089D94F8360008280C
:102460005BD2DFE800F0040508090607323300BF3D
:1024700000BF00BF52E000BF94F83400032807D12A
:1024800043463A4621463046009500F04AF803E0BC
:10249000A765A4F85C80A56436B12046FFF79BFFD2
:1024A00021463046FFF730FF94F83600032802D16A
:1024B000204600F013FF204600F0ACF80020343432
:1024C000A070607004F8340928E000BF94F834006C
:1024D000032807D143463A4621463046009500F08E
:1024E00020F803E0A765A4F85C80A56436B1204617
:1024F000FFF771FF21463046FFF706FF94F83600DC
:10250000072802D1204600F0E9FE04203434A070F0
:102510000020607004F8340900E000BF00BFBDE88F
:10252000F883F0B50446059E086BB1F846500AE002
:10253000C768A74204D1046142610383C66104E015
:1025400020306F1EBDB2002DF2DC00BFF0BD0000D8
:1025500070B50025074C03E005F12000C5B2241D2D
:1025600020680028F8D02068FDF75FFE2844C5B237
:10257000284670BD18000020002004E00021034A16
:1025800042F82010401C0228F8D3704718000020A1
:1025900030B5420900F01F030121C3F11F04A1401F
:1025A000034C54F822400C43014D45F8224030BD05
:1025B0001800002030B5420900F01F030121C3F1CB
:1025C0001F04A140034C54F822408C43014D45F8B0
:1025D000224030BD180000200021034A1160034A48
:1025E000118001807047000060000020640000201E
:1025F00000210AE001EB4102054B03EB82000022BF
:102600000281026042604A1CD1B24029F2D3704775
:102610005838002010B5044694F83700FFF7B8FF8B
:1026200094F8370005490978884203D1204600F024
:1026300027F802E0204600F003F810BD5A00002001
:1026400010B590F8373003EB43030C4C04EB8301D7
:102650000B893BB901230B810023C3600361086030
:10266000486009E00B895B1C0B810B68C360002389
:1026700003610A681061086010BD0000583800202E
:1026800010B590F8373003EB43030B4C04EB830198
:102690000B893BB901230B810023C36003610860F0
:1026A000486008E00B895B1C0B810023C3604A680B
:1026B0000261D060486010BD583800202DE9F0411B
:1026C000054695F8370000EB4000124901EB800405
:1026D0002F69EE6887B946B90020208120606060CC
:1026E00095F83700FFF766FF0EE02089401E208135
:1026F00000203061266007E02089401E2081FE60B6
:102700000EB9676000E0376100202861E860BDE82D
:10271000F08100005838002010B5044800780128E6
:1027200003D1FDF749FF0249086010BD7400002085
:102730006800002010B50A48007880B9FDF73CFF1A
:1027400008490968441A08480068A04201D20648AE
:10275000046006480068A04201D20448046010BD2D
:1027600074000020680000206C0000207000002031
:102770000021034A1160034A118001807047000064
:10278000780000207C00002086B00020009006E049
:10279000A8490968480001AA0021FFF763FAA64882
:1027A00000780128F4D101A8FEF738FC0027A348DF
:1027B0000068A0490968884205D9A04800689D4979
:1027C0000968B0FBF1F727B99C4800680A21B0FB03
:1027D000F1F72EE1FDF7F0FE804600BF00BFFDF7E8
:1027E00019FD009000BF00BF95480068954908603A
:1027F00000209349086000BF00BF0098FDF70EFD60
:1028000000BF00BF904800688E490968884248D9D7
:102810008D4800688D49884205D242F210700390BD
:102820000120029023E0884800688949884205D247
:102830004FF47A7003900A20029018E082480068F2
:102840008449884203D26420039002900FE07E48BE
:1028500000688149884205D20A2003904FF47A70BB
:10286000029004E00120039042F21070029076483A
:1028700001680298B1FBF0FA72490398096848436D
:10288000B0FBFAF042F21071081A744908807448DB
:1028900000880988884208DA7048008870490880F2
:1028A00003E042F210706D490880FEF7C3FC00257A
:1028B00000BF00BFFDF7AEFC009000BF00BF69483D
:1028C000046800BF00BF0098FDF7A8FC00BF00BF70
:1028D00026E000BF00BFFDF79DFC009000BF00BFD9
:1028E00054F8980F6060002044F8980900BF00BFBA
:1028F0000098FDF793FC00BF00BFD4F89C0005448E
:1029000000BF00BFFDF786FC009000BF00BFD4F8F9
:10291000B84000BF00BF0098FDF780FC00BF00BFBB
:10292000002CD6D145B34948854205D242F21070F9
:1029300005904FF0010B1BE04548854205D24FF44E
:102940007A7005904FF00A0B12E04248854203D29C
:102950006420059083460BE03F48854204D20A205C
:1029600005904FF47A7B03E00120059042F2107B42
:10297000B5FBFBF0049003E00020059001200490DB
:1029800000BF00BFFDF746FC009000BF00BF354808
:10299000046800BF00BF0098FDF740FC00BF00BF07
:1029A0002BE0D4F89C00059948430499B0FBF1F062
:1029B00086B242F21070864200D90646A4F88860BA
:1029C000B4F88A00B04201DAA4F88A6001AB04F1DD
:1029D000A802111D2046FEF715FF00BF00BFFDF73E
:1029E00019FC009000BF00BFD4F8B84000BF00BF82
:1029F0000098FDF713FC00BF00BF002CD1D11A488E
:102A00000078012805D100201749087001A8FEF7B9
:102A100005FBFDF7D1FDA0EB080914480068484507
:102A200002D21248C0F8009001AA00213846FFF7F0
:102A300019F9CFE6AC3B000890000020C43B000829
:102A4000840000208C00002088000020801A0600EE
:102A500000093D00005A62020084D7178000002060
:102A6000820000209C0000207E00002094000020B6
:102A700010B58AB0044600201F4908601F4908604D
:102A80001F4908601F4908701F4908701F480068E7
:102A900020B946F62B6020800AB010BD1C480068A3
:102AA0001C490968884203D246F62C602080F3E76F
:102AB000194800783F2803D346F62A602080EBE7C8
:102AC000032000210591CDE907040691084610492D
:102AD0000968124A12680D4B1B68CDE90132CDE935
:102AE00003100D48007800230D4A0EA100901248F3
:102AF000FEF7AAFB00BFCFE7840000208C00002077
:102B000088000020900000207E000020B03B0008DC
:102B1000B83B0008C03B0008A83B0008B43B0008D5
:102B20008927000875432F4F532D49494920537475
:102B30006174205461736B00583B002070B50446EB
:102B40000D4645B12A462146064800F025FB0320E4
:102B500084F8360002E0022084F836002046FFF7B1
:102B6000ADFD70BDB40000202DE9F04104460D46D6
:102B700000BF002694F8377094F8360008285FD21A
:102B8000DFE800F004191E1F1A1B20212046FFF762
:102B900095FD84F8375094F83700FFF7F9FC2C487E
:102BA0000068844203D12046FFF74AFD02E0204638
:102BB000FFF766FD46E000BF00BF84F8375041E0F4
:102BC00000BF00BF00BF84F8375094F834000828D5
:102BD00031D2DFE800F0300431050B06073200BFC8
:102BE00000BF00BF2046FFF7A1FB27E02046FFF70C
:102BF0009DFB206BC068466AAF4205DD96F8370042
:102C0000A84217DC002615E096F83700B84211D12B
:102C10003046FFF7D3FA054696F83800A84202DAA4
:102C200096F8380000E02846054696F83700A84296
:102C300000D1002602E000BF00BF00BF00BF01E0DE
:102C4000BDE8F08100BF3446002C92D100BFF7E709
:102C5000DC0000200021C0F8B4100949096819B946
:102C60000021C0F8B81007E005490968C0F8B8109D
:102C700003490968C1F8B4000149086070470000C1
:102C80009C000020D0F8B420D0F8B8104AB90D4B01
:102C9000196011B10023C1F8B4300023C0F8B83076
:102CA0000FE029B90023C2F8B830C0F8B43008E00A
:102CB000C2F8B810C1F8B4200023C0F8B830C0F88A
:102CC000B43070479C0000200021044A1160044A7F
:102CD0001180044A11600180704700009C000020B0
:102CE000A00000209800002070B50446002020605D
:102CF000A0606060E06020616061A061E06126A08A
:102D0000206200206062A062E062A064A065A4F876
:102D10005C00002104F16000FFF7FCF9002020674F
:102D20006067E067A4F88400C4F88000002506E02E
:102D3000002104F1780040F82510681CC5B2002D70
:102D4000F6D000203434A061E0662067E06084F8AB
:102D50005200A06760672082E0612062A4F85400FE
:102D6000A4F85600A065E065FDF726FC0646266639
:102D700000206066E06720706070A0704020E07006
:102D800020710020A060C4F88000C4F8840004A072
:102D9000C4F88800343C70BD3F5461736B00000080
:102DA0002000000070B504460D46002600BF00BF9D
:102DB000FDF730FA064600BF00BF0020288094F8D7
:102DC000360008285ED2DFE800F004050607122767
:102DD000394B00BF00BF00BF00BF00BF3046FDF74A
:102DE0001DFA00BF00BF47F25310288055E014F8C9
:102DF000860F401E207014F8860928B9002084F838
:102E000036002046FFF706FC00BF00BF3046FDF746
:102E100005FA00BF00BF40E014F8860F401E207086
:102E200014F8860910B9012084F8360000BF00BFED
:102E30003046FDF7F3F900BF00BF2EE014F8860F0F
:102E4000401E207014F8860910B9022084F836005C
:102E500000BF00BF3046FDF7E1F900BF00BF1CE036
:102E600014F8860F401E207014F8860910B903204C
:102E700084F8360000BF00BF3046FDF7CFF900BF31
:102E800000BF0AE000BF00BF3046FDF7C7F900BF32
:102E900000BF46F62D60288070BD00BFFDF7C8FF5B
:102EA00000BFF9E708B504480068FEF79BFB6946D8
:102EB0000020FEF79DFA08BDDC0000202DE9F84354
:102EC0000446884617461D464FF0000900BF00BF64
:102ED000FDF7A0F9814600BF00BF0CB96748046840
:102EE000A7640020288094F83600082876D2DFE80E
:102EF00000F0040550510607525300BF00BF00BF49
:102F00000420012804D0022813D0042833D122E061
:102F1000E06CFF280CD100BF00BF4846FDF77EF9EA
:102F200000BF00BF46F6C55028800020BDE8F883EA
:102F300022E04FF6FF71E06C88420BD100BF00BF6A
:102F40004846FDF76BF900BF00BF46F6C550288024
:102F50000020EBE710E0E06C401C58B900BF00BF58
:102F60004846FDF75BF900BF00BF46F6C550288014
:102F70000020DBE700E000BF00BFE06C401CE06425
:102F8000E66C00BF00BF4846FDF748F900BF00BF30
:102F900071E000BF00BF00BF94F83400072815D1CE
:102FA00000231A46214618460097FFF74FFAE66CB1
:102FB00000BF00BF4846FDF731F900BF00BF08F46D
:102FC000004000284AD1FDF733FF47E004200128E4
:102FD00005D0022813D0042833D122E03FE0E06C72
:102FE000FF280BD100BF00BF4846FDF717F900BF0F
:102FF00000BF46F6C5502880002097E722E04FF634
:10300000FF71E06C88420BD100BF00BF4846FDF75E
:1030100005F900BF00BF46F6C5502880002085E7AF
:1030200010E0E06C401C58B900BF00BF4846FDF7F7
:10303000F5F800BF00BF46F6C5502880002075E7B0
:1030400000E000BF00BFE06C401CE064E66C00BF25
:1030500000BF4846FDF7E2F800BF00BF0BE000BF2D
:1030600000BF4846FDF7DAF800BF00BF46F62D6006
:103070002880002600BF00BF304657E7DC00002054
:1030800070B504460D46002600BF00BFFDF7C2F82C
:10309000064600BF00BF0CB93D4804683C480068C4
:1030A00084420ED13B48007800280ADD00BF00BFF3
:1030B0003046FDF7B3F800BF00BF46F663502880E6
:1030C00070BD0020288094F83600082850D2DFE830
:1030D00000F0041523313F404142042084F83600BB
:1030E000012084F886002046FFF7E8FA00BF00BF01
:1030F0003046FDF793F800BF00BF44E0052084F898
:103100003600012084F8860000BF00BF3046FDF77E
:1031100085F800BF00BF36E0062084F836000120A5
:1031200084F8860000BF00BF3046FDF777F800BF87
:1031300000BF28E0072084F83600012084F88600CC
:1031400000BF00BF3046FDF769F800BF00BF1AE0BE
:1031500000BF00BF00BF94F88600401C84F88600C2
:1031600000BF00BF3046FDF759F800BF00BF0AE0BE
:1031700000BF00BF3046FDF751F800BF00BF46F664
:103180002D6028809CE700BFFDF752FE00BF97E747
:10319000DC0000207400002070B51546066846B9B2
:1031A0000D6500264E618E61C86101600126868032
:1031B00033E0046802682B4624E0166D9E421DD35E
:1031C00096696EB90B6500268E614A61C861166DFD
:1031D000F61A1665916101608688761C86800CE07F
:1031E00094690B658C614A61C861166DF61A1665A3
:1031F000916161618688761C868070BD166D9B1B0F
:1032000014465269002AD8D10B658C6100264E61A4
:10321000C86161618688761C868000BFEDE700008A
:103220002DE9F04104460D4690461F46B8F1040FC3
:103230000ED1284800682E1A16F5803F01D8002EBE
:103240003CD10020206547F27E203880BDE8F08127
:10325000B8F1080F29D11F49606D0968081AA84202
:1032600005D92E461B4800682844606526E01949A8
:10327000606D0968081A2E1A16F5803F00D886B9C5
:103280001449606D0968081AB0FBF5F005FB0050A1
:10329000616D084460650020206547F27E2038801B
:1032A000D4E7606D2844606508E00DB12E4605E066
:1032B0000020206547F27E203880C7E7012084F88F
:1032C0003600324621460448FFF766FF002038806A
:1032D00000BFBBE7A4000020AC00002030B5C269ED
:1032E00083694169ABB929B90024146094800465ED
:1032F000C4611EE000248C610C6D056D2C440C65CE
:1033000011609488641E9480002444610465C46143
:103310000FE0596121B18B610C6D056D2C440C657A
:10332000002484619488641E9480002444610465B0
:10333000C46130BD704700002DE9F0474FF000092F
:1033400000BF00BFFCF766FF814600BF00BFFDF76E
:1033500033F9064600271D4D2C683CB3206D401EF6
:1033600020651FE0781C87B294F83600012806D14A
:10337000002084F836002046FFF74CF906E094F868
:103380003600052802D1042084F8360060692860E0
:103390002C6814B90020A88007E0A888401EA880E7
:1033A0000020A061206D0028DCD000BFEF80FDF779
:1033B00003F9A0EB060800BF00BF4846FCF72EFF4C
:1033C00000BF00BF4046BDE8F0870000AC00002011
:1033D0002DE9F05F4FF0000B00BF00BFFCF71AFFB4
:1033E000834600BF00BFFDF7E7F807464FF000082F
:1033F0003B4D2C68002C63D0206D401E20655BE0A7
:1034000008F101001FFA80F8002694F8340004281F
:1034100002D1206BC068466A0020A065A4F85C0059
:10342000FDF7CAF8A0642046FEF7D5FF94F83600F1
:10343000032806D12046FFF7EDF8002084F8360077
:1034400006E094F83600072802D1042084F83600FC
:10345000032084F83500002084F8340006B396F881
:10346000370096F8381088421AD096F8370094F84A
:103470003710884214D13046FEF7A0FE814696F8F8
:103480003800484502DA96F8380000E048468146A0
:1034900096F83700484503D049463046FFF764FBAD
:1034A000606928602C6814B90020A88007E0A8880B
:1034B000401EA8800020A061206D0028A0D000BF81
:1034C000A5F80680FDF778F8A0EB070A00BF00BF5B
:1034D0005846FCF7A3FE00BF00BF5046BDE8F09F72
:1034E000B400002008B5002728E06B4600221146F2
:1034F0001046FEF783F8BDF80000F8B900BF00BF22
:10350000FCF788FE074600BF00BF0D480068401C5E
:103510000B49086000BF00BF3846FCF77FFE00BFC4
:1035200000BFFFF709FF0646FFF752FF0546741973
:1035300004480068A04201D202480460D5E70000B8
:10354000A4000020A800002010B58AB00446002086
:103550002049086020490860204908601E49888089
:10356000C8801E498880C8801D48006820B947F27D
:10357000122020800AB010BD1A4800681A49096854
:10358000884203D247F213202080F3E717480078DF
:103590003F2803D347F211202080EBE70B200021C6
:1035A0000591CDE90704069108460E490A681049BD
:1035B00009680B4B1B68CDE90131CDE903200B48AD
:1035C000007800230B4A0CA100901048FDF73CFE48
:1035D00000BFCFE7A4000020AC000020B400002012
:1035E000CC3B0008D43B0008C03B0008C83B0008A7
:1035F000D03B0008E534000875432F4F532D49494F
:1036000049205469636B205461736B00183C00209F
:1036100010B58AB0044600202F4908602F49086081
:103620002F4908802F48006840B12F4800682D4975
:103630000968B0FBF1F02D49086006E02A480068EF
:103640000A21B0FBF1F029490860284800682849A0
:10365000086000202749086027490860224627A102
:103660002A48FDF7FFF9208808B10AB010BD2848A4
:10367000006818B947F247302080F6E7254800680F
:1036800025490968884203D247F248302080ECE798
:10369000224800783F2803D347F246302080E4E7F1
:1036A0000B20002105910A46CDE90704069119482F
:1036B00000681B490968164B1B68CDE90131CDE94B
:1036C0000302164800780023164A17A100901C48F0
:1036D000FDF7BAFD00BFC8E7BC000020C400002011
:1036E000C0000020E03B0008C43B0008D4000020DC
:1036F000D8000020D0000020CC0000204F532054E0
:103700006D72204D7574657800000000D83C002073
:10371000E43B0008EC3B0008C03B0008DC3B000831
:10372000E83B00086137000875432F4F532D494986
:10373000492054696D6572205461736B000000006C
:10374000083D00200EB502A801AB002211460090F2
:103750000148FDF7BFF90EBDD83C002070470000BE
:103760001CB53FE001AB6A4600210846FDF746FF65
:10377000FFF7E8FFFCF720FF06461B480068401CE7
:1037800019490860194804681FE001A8FDF7A2FB69
:10379000D4F81080A069401EA061A06980B9A08CF7
:1037A000022802D1206AA06105E0204600F022F83C
:1037B000032084F82600A56815B12046E168A847D3
:1037C000444601A8FDF7B6FB00BF002CDDD1FCF795
:1037D000F3FE871B00F030F805480068B84201D2BC
:1037E00003480760BEE70000D0000020C4000020AE
:1037F000CC00002010B50E4B1B68834206D1016936
:103800000B4B196039B100234B6104E04169026937
:103810000A6102B15161012380F82630002303615F
:103820004361044B1B885B1E024C238010BD0000CB
:10383000C4000020C000002008B56A4600210248EC
:10384000FDF730FA08BD0000D83C002029B1064A37
:1038500012680243044B1A6004E0034A1268824370
:10386000014B1A607047000030380240F0B500216B
:1038700000220024022500260223324F3F6807F071
:103880000C0121B1042905D0082937D105E02E4FBC
:10389000076036E02D4F076033E02A4F3F1F3F6837
:1038A000C7F38056274F3F1F3F6807F03F036EB1B5
:1038B000264FB7FBF3F7DFF88CC0ACF1040CDCF853
:1038C00000C0CCF3881C07FB0CF40CE01E4FB7FBC8
:1038D000F3F7DFF870C0ACF1040CDCF800C0CCF3F7
:1038E000881C07FB0CF4174F3F1F3F68C7F30147C5
:1038F0007F1C7D00B4FBF5F7076002E0124F076004
:1039000000BF00BF0F4F3F6807F0F0010909104FDB
:103910007A5C0768D74047600A4F3F6807F4E05178
:10392000890A0B4F7A5C4768D7408760054F3F682C
:1039300007F46041490B064F7A5C4768D740C7607F
:10394000F0BD0000083802400024F40040787D01FA
:1039500000000020704700000CB50020019000908E
:103960004148006840F480303F49086000BF3E484D
:10397000006800F4003000900198401C019000980D
:1039800018B90198B0F5A04FF1D13748006800F49C
:10399000003010B10120009001E00020009000985C
:1039A000012860D130484030006840F080502E49F6
:1039B000403108602D48006840F440402B490860C1
:1039C000294808300068284908310860084600681E
:1039D00040F4004008600846006840F4A0500860C9
:1039E0002348091F0860081F006840F08070091F05
:1039F000086000BF1C48006800F000700028F9D083
:103A00001A48006840F480301849086000BF174821
:103A1000406800F480300028F9D01448006840F471
:103A200000301249086000BF1048406800F40030C0
:103A30000028F9D040F205700E4908600A480830A5
:103A4000006820F003000849083108600846006853
:103A500040F00200086000BF03480830006800F032
:103A60000C000828F8D10CBD00380240007000405E
:103A7000195A4007003C024010B51548006840F450
:103A80007000134908601348006840F001001149B4
:103A9000086000200F49083108600E4800680E4990
:103AA00008400C4908600D48091D0860081F00689F
:103AB00020F48020091F0860002006490C310860AE
:103AC000FFF74AFF4FF0006001498039086010BDE0
:103AD00088ED00E000380240FFFFF6FE10300024C1
:103AE00000BFFEE702E008C8121F08C1002AFAD191
:103AF00070477047002001E001C1121F002AFBD16E
:103B00007047000000B58BB00AA8FCF777FE0AA842
:103B1000032100220592CDE906210890052080218D
:103B20000C22094BCDE90132CDE90310022000231C
:103B3000064A07A100900A48FDF786FB0AA8FDF790
:103B400039FA00200BB000BDE8030020DD030008B7
:103B5000417070205461736B205374617274000063
:103B6000E80000200C2A00200600000040000000B1
:103B70000001000000000000000000000000000044
:103B80000000000000000000000000000000000035
:103B90000C2B002064000000900100006400000075
:103BA000400600009C2C00200B0000000A000000D2
:103BB000DC3200200A0000006400000090010000D8
:103BC00040000000E8030000010000006C34002009
:103BD0000A00000064000000900100000B000000DB
:103BE0000A000000FC3500200A000000640000000C
:103BF00090010000800D0000010101007856341290
:103C000000010000000000000000000000000000B3
:103C100000000000000000000000000000000000A4
:103C20000000000000000000000000000101010091
:103C30002800040000000000000000000000000058
:103C40000000000000000000000000000000000074
:103C50000000000000000000010020000100100032
:103C60000C00100000000000000000000000000038
:103C70000000000000000000000000000000000044
:103C80000000000000000000000000000000000034
:103C900000000000010101003000010020000C00C4
:103CA00020004000080004000000000000000000A8
:103CB0000000000000000000000000000000000004
:103CC00000000000000000000000000000000000F4
:103CD00000000000000000000101010130000000B0
:103CE00000000000000000000000000000000000D4
:103CF00000000000000000000000000000000000C4
:103D000000000000000000000101010128000C007B
:103D10000003000004010101010101010100010192
:103D2000C0000800010100000000000000000000C9
:103D30000000000000000000000000000000000083
:103D40000000000000000000000000000000000073
:103D5000000000000000000001013000C4760000F7
:103D6000F1060000843D000800000020E80000008B
:103D7000E43A00086C3E0008E8000020E04C000037
:103D8000F43A0008000000000102030401020304E9
:103D90000607080900000000000000000000000005
:103DA0000000000000000000000000000000000013
:103DB0000000000000000000000000000000000003
:103DC00000000000000000000000000000000000F3
:103DD00000000000000000000000000000000000E3
:103DE00000000000000000000000000000000000D3
:103DF00000000000000000000000000000000000C3
:103E000000000000000000000000000000000000B2
:103E100000000000000000000000000000000000A2
:103E20000000000000000000000000000000000092
:103E30000000000000000000000000000000000082
:103E40000000000000000000000000000000000072
:103E50000000000000000000000000000000000062
:0C3E600000000000000000000000000056
:04000005080001AD41
:00000001FF
